{
  "abi": [
    {
      "inputs": [],
      "stateMutability": "nonpayable",
      "type": "constructor"
    },
    {
      "inputs": [
        {
          "internalType": "string",
          "name": "",
          "type": "string"
        }
      ],
      "name": "OrderNotValid",
      "type": "error"
    },
    {
      "inputs": [
        {
          "internalType": "string",
          "name": "reason",
          "type": "string"
        }
      ],
      "name": "PollNever",
      "type": "error"
    },
    {
      "inputs": [
        {
          "internalType": "uint256",
          "name": "blockNumber",
          "type": "uint256"
        },
        {
          "internalType": "string",
          "name": "reason",
          "type": "string"
        }
      ],
      "name": "PollTryAtBlock",
      "type": "error"
    },
    {
      "inputs": [
        {
          "internalType": "uint256",
          "name": "timestamp",
          "type": "uint256"
        },
        {
          "internalType": "string",
          "name": "reason",
          "type": "string"
        }
      ],
      "name": "PollTryAtEpoch",
      "type": "error"
    },
    {
      "inputs": [
        {
          "internalType": "string",
          "name": "reason",
          "type": "string"
        }
      ],
      "name": "PollTryNextBlock",
      "type": "error"
    },
    {
      "anonymous": false,
      "inputs": [
        {
          "indexed": true,
          "internalType": "address",
          "name": "owner",
          "type": "address"
        },
        {
          "components": [
            {
              "internalType": "contract IConditionalOrder",
              "name": "handler",
              "type": "address"
            },
            {
              "internalType": "bytes32",
              "name": "salt",
              "type": "bytes32"
            },
            {
              "internalType": "bytes",
              "name": "staticInput",
              "type": "bytes"
            }
          ],
          "indexed": false,
          "internalType": "struct IConditionalOrder.ConditionalOrderParams",
          "name": "params",
          "type": "tuple"
        }
      ],
      "name": "ConditionalOrderCreated",
      "type": "event"
    },
    {
      "anonymous": false,
      "inputs": [
        {
          "indexed": true,
          "internalType": "address",
          "name": "",
          "type": "address"
        }
      ],
      "name": "ConditionalOrderCreated",
      "type": "event"
    },
    {
      "inputs": [
        {
          "components": [
            {
              "internalType": "address",
              "name": "token",
              "type": "address"
            },
            {
              "internalType": "uint256",
              "name": "decimals",
              "type": "uint256"
            },
            {
              "internalType": "int256",
              "name": "absoluteDelta",
              "type": "int256"
            },
            {
              "internalType": "int256",
              "name": "percentageDelta",
              "type": "int256"
            },
            {
              "internalType": "uint256",
              "name": "price",
              "type": "uint256"
            },
            {
              "internalType": "uint256",
              "name": "safeBalance",
              "type": "uint256"
            },
            {
              "internalType": "uint256",
              "name": "targetBalance",
              "type": "uint256"
            }
          ],
          "internalType": "struct Rebalance.Asset[]",
          "name": "assets",
          "type": "tuple[]"
        }
      ],
      "name": "computeAssetDeltas",
      "outputs": [
        {
          "components": [
            {
              "internalType": "address",
              "name": "token",
              "type": "address"
            },
            {
              "internalType": "uint256",
              "name": "decimals",
              "type": "uint256"
            },
            {
              "internalType": "int256",
              "name": "absoluteDelta",
              "type": "int256"
            },
            {
              "internalType": "int256",
              "name": "percentageDelta",
              "type": "int256"
            },
            {
              "internalType": "uint256",
              "name": "price",
              "type": "uint256"
            },
            {
              "internalType": "uint256",
              "name": "safeBalance",
              "type": "uint256"
            },
            {
              "internalType": "uint256",
              "name": "targetBalance",
              "type": "uint256"
            }
          ],
          "internalType": "struct Rebalance.Asset[]",
          "name": "",
          "type": "tuple[]"
        }
      ],
      "stateMutability": "view",
      "type": "function"
    },
    {
      "inputs": [
        {
          "internalType": "address",
          "name": "",
          "type": "address"
        },
        {
          "internalType": "address",
          "name": "",
          "type": "address"
        },
        {
          "internalType": "bytes32",
          "name": "",
          "type": "bytes32"
        },
        {
          "internalType": "bytes",
          "name": "staticInput",
          "type": "bytes"
        },
        {
          "internalType": "bytes",
          "name": "",
          "type": "bytes"
        }
      ],
      "name": "getTradeableOrder",
      "outputs": [
        {
          "components": [
            {
              "internalType": "contract IERC20",
              "name": "sellToken",
              "type": "address"
            },
            {
              "internalType": "contract IERC20",
              "name": "buyToken",
              "type": "address"
            },
            {
              "internalType": "address",
              "name": "receiver",
              "type": "address"
            },
            {
              "internalType": "uint256",
              "name": "sellAmount",
              "type": "uint256"
            },
            {
              "internalType": "uint256",
              "name": "buyAmount",
              "type": "uint256"
            },
            {
              "internalType": "uint32",
              "name": "validTo",
              "type": "uint32"
            },
            {
              "internalType": "bytes32",
              "name": "appData",
              "type": "bytes32"
            },
            {
              "internalType": "uint256",
              "name": "feeAmount",
              "type": "uint256"
            },
            {
              "internalType": "bytes32",
              "name": "kind",
              "type": "bytes32"
            },
            {
              "internalType": "bool",
              "name": "partiallyFillable",
              "type": "bool"
            },
            {
              "internalType": "bytes32",
              "name": "sellTokenBalance",
              "type": "bytes32"
            },
            {
              "internalType": "bytes32",
              "name": "buyTokenBalance",
              "type": "bytes32"
            }
          ],
          "internalType": "struct GPv2Order.Data",
          "name": "order",
          "type": "tuple"
        }
      ],
      "stateMutability": "view",
      "type": "function"
    },
    {
      "inputs": [
        {
          "internalType": "bytes32",
          "name": "orderDigest",
          "type": "bytes32"
        },
        {
          "internalType": "bytes",
          "name": "encodedOrder",
          "type": "bytes"
        }
      ],
      "name": "isValidSignature",
      "outputs": [
        {
          "internalType": "bytes4",
          "name": "",
          "type": "bytes4"
        }
      ],
      "stateMutability": "view",
      "type": "function"
    },
    {
      "inputs": [
        {
          "internalType": "uint256",
          "name": "_price",
          "type": "uint256"
        },
        {
          "internalType": "uint256",
          "name": "_decimals",
          "type": "uint256"
        },
        {
          "internalType": "uint256",
          "name": "_amount",
          "type": "uint256"
        }
      ],
      "name": "rescaledAmountInDollars",
      "outputs": [
        {
          "internalType": "uint256",
          "name": "",
          "type": "uint256"
        }
      ],
      "stateMutability": "view",
      "type": "function"
    },
    {
      "inputs": [
        {
          "internalType": "bytes4",
          "name": "interfaceId",
          "type": "bytes4"
        }
      ],
      "name": "supportsInterface",
      "outputs": [
        {
          "internalType": "bool",
          "name": "",
          "type": "bool"
        }
      ],
      "stateMutability": "view",
      "type": "function"
    },
    {
      "inputs": [],
      "name": "tolerance",
      "outputs": [
        {
          "internalType": "uint256",
          "name": "",
          "type": "uint256"
        }
      ],
      "stateMutability": "view",
      "type": "function"
    },
    {
      "inputs": [
        {
          "components": [
            {
              "internalType": "address",
              "name": "token",
              "type": "address"
            },
            {
              "internalType": "uint256",
              "name": "decimals",
              "type": "uint256"
            },
            {
              "internalType": "int256",
              "name": "absoluteDelta",
              "type": "int256"
            },
            {
              "internalType": "int256",
              "name": "percentageDelta",
              "type": "int256"
            },
            {
              "internalType": "uint256",
              "name": "price",
              "type": "uint256"
            },
            {
              "internalType": "uint256",
              "name": "safeBalance",
              "type": "uint256"
            },
            {
              "internalType": "uint256",
              "name": "targetBalance",
              "type": "uint256"
            }
          ],
          "internalType": "struct Rebalance.Asset[]",
          "name": "assets",
          "type": "tuple[]"
        }
      ],
      "name": "totalPortfolioWeightedValues",
      "outputs": [
        {
          "internalType": "uint256",
          "name": "totalSafe",
          "type": "uint256"
        },
        {
          "internalType": "uint256",
          "name": "totalTarget",
          "type": "uint256"
        },
        {
          "internalType": "uint256[]",
          "name": "positionValuesSafe",
          "type": "uint256[]"
        },
        {
          "internalType": "uint256[]",
          "name": "positionValuesTarget",
          "type": "uint256[]"
        }
      ],
      "stateMutability": "view",
      "type": "function"
    },
    {
      "inputs": [
        {
          "internalType": "bytes",
          "name": "data",
          "type": "bytes"
        }
      ],
      "name": "validateData",
      "outputs": [],
      "stateMutability": "view",
      "type": "function"
    },
    {
      "inputs": [
        {
          "internalType": "address",
          "name": "owner",
          "type": "address"
        },
        {
          "internalType": "address",
          "name": "sender",
          "type": "address"
        },
        {
          "internalType": "bytes32",
          "name": "_hash",
          "type": "bytes32"
        },
        {
          "internalType": "bytes32",
          "name": "domainSeparator",
          "type": "bytes32"
        },
        {
          "internalType": "bytes32",
          "name": "ctx",
          "type": "bytes32"
        },
        {
          "internalType": "bytes",
          "name": "staticInput",
          "type": "bytes"
        },
        {
          "internalType": "bytes",
          "name": "offchainInput",
          "type": "bytes"
        },
        {
          "components": [
            {
              "internalType": "contract IERC20",
              "name": "sellToken",
              "type": "address"
            },
            {
              "internalType": "contract IERC20",
              "name": "buyToken",
              "type": "address"
            },
            {
              "internalType": "address",
              "name": "receiver",
              "type": "address"
            },
            {
              "internalType": "uint256",
              "name": "sellAmount",
              "type": "uint256"
            },
            {
              "internalType": "uint256",
              "name": "buyAmount",
              "type": "uint256"
            },
            {
              "internalType": "uint32",
              "name": "validTo",
              "type": "uint32"
            },
            {
              "internalType": "bytes32",
              "name": "appData",
              "type": "bytes32"
            },
            {
              "internalType": "uint256",
              "name": "feeAmount",
              "type": "uint256"
            },
            {
              "internalType": "bytes32",
              "name": "kind",
              "type": "bytes32"
            },
            {
              "internalType": "bool",
              "name": "partiallyFillable",
              "type": "bool"
            },
            {
              "internalType": "bytes32",
              "name": "sellTokenBalance",
              "type": "bytes32"
            },
            {
              "internalType": "bytes32",
              "name": "buyTokenBalance",
              "type": "bytes32"
            }
          ],
          "internalType": "struct GPv2Order.Data",
          "name": "",
          "type": "tuple"
        }
      ],
      "name": "verify",
      "outputs": [],
      "stateMutability": "view",
      "type": "function"
    }
  ],
  "bytecode": {
    "object": "0x6080604052600560005534801561001557600080fd5b5060405130907f348a1454f658b360fcb291e66a7adc4a65b64b38b956802a976d5e460d0e208490600090a2611adb806100506000396000f3fe608060405234801561001057600080fd5b50600436106100935760003560e01c80635b900532116100665780635b90053214610124578063a6ffa36c14610145578063b8296fc414610156578063dce52dfa14610176578063ff38c96b1461017f57600080fd5b806301ffc9a71461009857806314a2a784146100c05780631626ba7e146100d557806347aeff3314610101575b600080fd5b6100ab6100a6366004610e5a565b61019f565b60405190151581526020015b60405180910390f35b6100d36100ce366004610ef1565b6101d6565b005b6100e86100e3366004610fc0565b61024a565b6040516001600160e01b031990911681526020016100b7565b61011461010f3660046110e2565b6102e4565b6040516100b79493929190611211565b61013761013236600461124d565b6104b2565b6040519081526020016100b7565b6100d3610153366004611279565b50565b61016961016436600461130d565b6104ea565b6040516100b791906113ab565b61013760005481565b61019261018d3660046110e2565b610ba2565b6040516100b79190611472565b60006001600160e01b03198216632e0a5bf160e21b14806101d057506001600160e01b031982166301ffc9a760e01b145b92915050565b60006101e78b8b89898989896104ea565b90506101f38189610daf565b891461023d57604080518082018252600c81526b0d2dcecc2d8d2c840d0c2e6d60a31b6020820152905163c8fc272560e01b815261023491906004016114fd565b60405180910390fd5b5050505050505050505050565b60008061025983850185611570565b905084610286827ffb378b35457022ecc5709ae5dafad9393c1387ae6d8ce24913a0c969074c07fb610daf565b146102d35760405162461bcd60e51b815260206004820152601d60248201527f656e636f646564206f7264657220646967657374206d69736d617463680000006044820152606401610234565b50630b135d3f60e11b949350505050565b60008060608084516001600160401b038111156103035761030361100b565b60405190808252806020026020018201604052801561032c578160200160208202803683370190505b50915084516001600160401b038111156103485761034861100b565b604051908082528060200260200182016040528015610371578160200160208202803683370190505b50905060005b85518110156104aa5760006103e48783815181106103975761039761162e565b6020026020010151608001518884815181106103b5576103b561162e565b6020026020010151602001518985815181106103d3576103d361162e565b602002602001015160a001516104b2565b9050600061044a8884815181106103fd576103fd61162e565b60200260200101516080015189858151811061041b5761041b61162e565b6020026020010151602001518a86815181106104395761043961162e565b602002602001015160c001516104b2565b9050610456828861165a565b96508185848151811061046b5761046b61162e565b6020908102919091010152610480818761165a565b9550808484815181106104955761049561162e565b60209081029190910101525050600101610377565b509193509193565b6000806104bf838661166d565b90506104e16104cf85600261166d565b6104da90600a611768565b8290610e00565b95945050505050565b6040805161018081018252600080825260208201819052918101829052606081018290526080810182905260a0810182905260c0810182905260e0810182905261010081018290526101208101829052610140810182905261016081018290529061055786860187611846565b905060008160000151516001600160401b038111156105785761057861100b565b6040519080825280602002602001820160405280156105f257816020015b6105df6040518060e0016040528060006001600160a01b031681526020016000815260200160008152602001600081526020016000815260200160008152602001600081525090565b8152602001906001900390816105965790505b50905060005b82515181101561094a576000808460e00151838151811061061b5761061b61162e565b60200260200101516001600160a01b031663feaf968c6040518163ffffffff1660e01b815260040160a060405180830381865afa158015610660573d6000803e3d6000fd5b505050506040513d601f19601f820116820180604052508101906106849190611970565b50935050925050600084848151811061069f5761069f61162e565b602002602001015160800151116106f35760408051808201825260148152736f7261636c6520696e76616c696420707269636560601b6020820152905163c8fc272560e01b815261023491906004016114fd565b61010085015161070390426119c0565b81101561074b5760408051808201825260128152716f7261636c65207374616c6520707269636560701b6020820152905163c8fc272560e01b815261023491906004016114fd565b845180518490811061075f5761075f61162e565b60209081029190910101516040516370a0823160e01b81523360048201526001600160a01b03909116906370a0823190602401602060405180830381865afa1580156107af573d6000803e3d6000fd5b505050506040513d601f19601f820116820180604052508101906107d391906119d3565b8484815181106107e5576107e561162e565b602090810291909101015160a0015284518051849081106108085761080861162e565b602090810291909101015160408087015190516370a0823160e01b81526001600160a01b0391821660048201529116906370a0823190602401602060405180830381865afa15801561085e573d6000803e3d6000fd5b505050506040513d601f19601f8201168201806040525081019061088291906119d3565b8484815181106108945761089461162e565b602090810291909101015160c0015284518051849081106108b7576108b761162e565b60200260200101516001600160a01b031663313ce5676040518163ffffffff1660e01b8152600401602060405180830381865afa1580156108fc573d6000803e3d6000fd5b505050506040513d601f19601f8201168201806040525081019061092091906119d3565b8484815181106109325761093261162e565b602090810291909101810151015250506001016105f8565b50600061095682610ba2565b905060008160008151811061096d5761096d61162e565b6020026020010151905060008260008151811061098c5761098c61162e565b6020026020010151905060005b8351811015610a3a5782606001518482815181106109b9576109b961162e565b60200260200101516060015113156109ec578381815181106109dd576109dd61162e565b60200260200101519150610a32565b8260600151848281518110610a0357610a0361162e565b6020026020010151606001511215610a3257838181518110610a2757610a2761162e565b602002602001015192505b600101610999565b5060005482606001511080610a5457506000548160600151105b15610a9557604080518082018252600d81526c696c6c6567616c2064656c746160981b6020820152905163c8fc272560e01b815261023491906004016114fd565b60405180610180016040528083600001516001600160a01b0316815260200182600001516001600160a01b0316815260200186608001516001600160a01b031681526020018360400151815260200182604001518152602001610afb8760c00151610e38565b63ffffffff16815260200186606001518152602001600081526020017ff3b277728b3fee749481eb3e0b3b48980dbbab78658fc419025cb16eee34677581526020016001151581526020017f5a28e9363bb942b639270062aa6bb295f434bcdfc42c97267bf003f272060dc981526020017f5a28e9363bb942b639270062aa6bb295f434bcdfc42c97267bf003f272060dc981525095505050505050979650505050505050565b6060600082516001600160401b03811115610bbf57610bbf61100b565b604051908082528060200260200182016040528015610be8578160200160208202803683370190505b509050600083516001600160401b03811115610c0657610c0661100b565b604051908082528060200260200182016040528015610c2f578160200160208202803683370190505b509050600080600080610c41886102e4565b935093509350935060005b8851811015610da25784838281518110610c6857610c6861162e565b6020026020010151610c7a9190611a02565b878281518110610c8c57610c8c61162e565b60200260200101818152505083828281518110610cab57610cab61162e565b6020026020010151610cbd9190611a02565b868281518110610ccf57610ccf61162e565b602002602001018181525050868181518110610ced57610ced61162e565b6020026020010151868281518110610d0757610d0761162e565b6020026020010151610d199190611a16565b898281518110610d2b57610d2b61162e565b60200260200101516060018181525050828181518110610d4d57610d4d61162e565b6020026020010151828281518110610d6757610d6761162e565b6020026020010151610d799190611a16565b898281518110610d8b57610d8b61162e565b602090810291909101015160400152600101610c4c565b5096979650505050505050565b601f1990910180517fd5a25ba2e97094ad7d83dc28a6572da797d6b3e7fc6663bd93efb789fc17e48982526101a08220915260405161190160f01b8152600281019290925260228201526042902090565b60008215610e2e5781610e146001856119c0565b610e1e9190611a02565b610e2990600161165a565b610e31565b60005b9392505050565b60008180610e468142611a3d565b610e509190611a60565b6101d09190611a88565b600060208284031215610e6c57600080fd5b81356001600160e01b031981168114610e3157600080fd5b6001600160a01b038116811461015357600080fd5b8035610ea481610e84565b919050565b60008083601f840112610ebb57600080fd5b5081356001600160401b03811115610ed257600080fd5b602083019150836020828501011115610eea57600080fd5b9250929050565b6000806000806000806000806000806102608b8d031215610f1157600080fd5b610f1b8b35610e84565b8a35995060208b0135610f2d81610e84565b985060408b0135975060608b0135965060808b0135955060a08b01356001600160401b0380821115610f5e57600080fd5b610f6a8e838f01610ea9565b909750955060c08d0135915080821115610f8357600080fd5b50610f908d828e01610ea9565b9094509250506101808b8d0360df19011215610fab57600080fd5b60e08b0190509295989b9194979a5092959850565b600080600060408486031215610fd557600080fd5b8335925060208401356001600160401b03811115610ff257600080fd5b610ffe86828701610ea9565b9497909650939450505050565b634e487b7160e01b600052604160045260246000fd5b60405160e081016001600160401b03811182821017156110435761104361100b565b60405290565b60405161018081016001600160401b03811182821017156110435761104361100b565b60405161012081016001600160401b03811182821017156110435761104361100b565b604051601f8201601f191681016001600160401b03811182821017156110b7576110b761100b565b604052919050565b60006001600160401b038211156110d8576110d861100b565b5060051b60200190565b600060208083850312156110f557600080fd5b82356001600160401b0381111561110b57600080fd5b8301601f8101851361111c57600080fd5b803561112f61112a826110bf565b61108f565b81815260e0918202830184019184820191908884111561114e57600080fd5b938501935b838510156111c95780858a03121561116b5760008081fd5b611173611021565b853561117e81610e84565b8152858701358782015260408087013590820152606080870135908201526080808701359082015260a0808701359082015260c0808701359082015283529384019391850191611153565b50979650505050505050565b60008151808452602080850194506020840160005b83811015611206578151875295820195908201906001016111ea565b509495945050505050565b84815283602082015260806040820152600061123060808301856111d5565b828103606084015261124281856111d5565b979650505050505050565b60008060006060848603121561126257600080fd5b505081359360208301359350604090920135919050565b6000602080838503121561128c57600080fd5b82356001600160401b03808211156112a357600080fd5b818501915085601f8301126112b757600080fd5b8135818111156112c9576112c961100b565b6112db601f8201601f1916850161108f565b915080825286848285010111156112f157600080fd5b8084840185840137600090820190930192909252509392505050565b600080600080600080600060a0888a03121561132857600080fd5b873561133381610e84565b9650602088013561134381610e84565b95506040880135945060608801356001600160401b038082111561136657600080fd5b6113728b838c01610ea9565b909650945060808a013591508082111561138b57600080fd5b506113988a828b01610ea9565b989b979a50959850939692959293505050565b81516001600160a01b03168152610180810160208301516113d760208401826001600160a01b03169052565b5060408301516113f260408401826001600160a01b03169052565b50606083015160608301526080830151608083015260a083015161141e60a084018263ffffffff169052565b5060c083015160c083015260e083015160e0830152610100808401518184015250610120808401516114538285018215159052565b5050610140838101519083015261016092830151929091019190915290565b602080825282518282018190526000919060409081850190868401855b828110156114f057815180516001600160a01b0316855286810151878601528581015186860152606080820151908601526080808201519086015260a0808201519086015260c0908101519085015260e0909301929085019060010161148f565b5091979650505050505050565b60006020808352835180602085015260005b8181101561152b5785810183015185820160400152820161150f565b506000604082860101526040601f19601f8301168501019250505092915050565b803563ffffffff81168114610ea457600080fd5b80358015158114610ea457600080fd5b6000610180828403121561158357600080fd5b61158b611049565b61159483610e99565b81526115a260208401610e99565b60208201526115b360408401610e99565b604082015260608301356060820152608083013560808201526115d860a0840161154c565b60a082015260c083013560c082015260e083013560e082015261010080840135818301525061012061160b818501611560565b908201526101408381013590820152610160928301359281019290925250919050565b634e487b7160e01b600052603260045260246000fd5b634e487b7160e01b600052601160045260246000fd5b808201808211156101d0576101d0611644565b80820281158282048414176101d0576101d0611644565b600181815b808511156116bf5781600019048211156116a5576116a5611644565b808516156116b257918102915b93841c9390800290611689565b509250929050565b6000826116d6575060016101d0565b816116e3575060006101d0565b81600181146116f957600281146117035761171f565b60019150506101d0565b60ff84111561171457611714611644565b50506001821b6101d0565b5060208310610133831016604e8410600b8410161715611742575081810a6101d0565b61174c8383611684565b806000190482111561176057611760611644565b029392505050565b6000610e3183836116c7565b600082601f83011261178557600080fd5b8135602061179561112a836110bf565b8083825260208201915060208460051b8701019350868411156117b757600080fd5b602086015b848110156117dc5780356117cf81610e84565b83529183019183016117bc565b509695505050505050565b600082601f8301126117f857600080fd5b8135602061180861112a836110bf565b8083825260208201915060208460051b87010193508684111561182a57600080fd5b602086015b848110156117dc578035835291830191830161182f565b60006020828403121561185857600080fd5b81356001600160401b038082111561186f57600080fd5b90830190610120828603121561188457600080fd5b61188c61106c565b82358281111561189b57600080fd5b6118a787828601611774565b8252506020830135828111156118bc57600080fd5b6118c8878286016117e7565b6020830152506118da60408401610e99565b6040820152606083013560608201526118f560808401610e99565b608082015261190660a08401611560565b60a082015261191760c0840161154c565b60c082015260e08301358281111561192e57600080fd5b61193a87828601611774565b60e0830152506101009283013592810192909252509392505050565b805169ffffffffffffffffffff81168114610ea457600080fd5b600080600080600060a0868803121561198857600080fd5b61199186611956565b94506020860151935060408601519250606086015191506119b460808701611956565b90509295509295909350565b818103818111156101d0576101d0611644565b6000602082840312156119e557600080fd5b5051919050565b634e487b7160e01b600052601260045260246000fd5b600082611a1157611a116119ec565b500490565b8181036000831280158383131683831282161715611a3657611a36611644565b5092915050565b600063ffffffff80841680611a5457611a546119ec565b92169190910492915050565b63ffffffff818116838216028082169190828114611a8057611a80611644565b505092915050565b63ffffffff818116838216019080821115611a3657611a3661164456fea2646970667358221220a210eb083dc4c741ee499f2d9f60acfc01651c960bb5bf5bdc0282f9e21b165964736f6c63430008160033",
    "linkReferences": {}
  },
  "methodIdentifiers": {
    "computeAssetDeltas((address,uint256,int256,int256,uint256,uint256,uint256)[])": "ff38c96b",
    "getTradeableOrder(address,address,bytes32,bytes,bytes)": "b8296fc4",
    "isValidSignature(bytes32,bytes)": "1626ba7e",
    "rescaledAmountInDollars(uint256,uint256,uint256)": "5b900532",
    "supportsInterface(bytes4)": "01ffc9a7",
    "tolerance()": "dce52dfa",
    "totalPortfolioWeightedValues((address,uint256,int256,int256,uint256,uint256,uint256)[])": "47aeff33",
    "validateData(bytes)": "a6ffa36c",
    "verify(address,address,bytes32,bytes32,bytes32,bytes,bytes,(address,address,address,uint256,uint256,uint32,bytes32,uint256,bytes32,bool,bytes32,bytes32))": "14a2a784"
  },
  "id": 53
}