{
  "abi": [
    {
      "inputs": [],
      "stateMutability": "nonpayable",
      "type": "constructor"
    },
    {
      "anonymous": false,
      "inputs": [
        {
          "indexed": true,
          "internalType": "contract Safe",
          "name": "safe",
          "type": "address"
        },
        {
          "indexed": false,
          "internalType": "bytes32",
          "name": "domainSeparator",
          "type": "bytes32"
        },
        {
          "indexed": false,
          "internalType": "contract ISafeSignatureVerifier",
          "name": "verifier",
          "type": "address"
        }
      ],
      "name": "AddedDomainVerifier",
      "type": "event"
    },
    {
      "anonymous": false,
      "inputs": [
        {
          "indexed": true,
          "internalType": "address",
          "name": "owner",
          "type": "address"
        }
      ],
      "name": "AddedOwner",
      "type": "event"
    },
    {
      "anonymous": false,
      "inputs": [
        {
          "indexed": true,
          "internalType": "contract Safe",
          "name": "safe",
          "type": "address"
        },
        {
          "indexed": false,
          "internalType": "bytes4",
          "name": "selector",
          "type": "bytes4"
        },
        {
          "indexed": false,
          "internalType": "bytes32",
          "name": "method",
          "type": "bytes32"
        }
      ],
      "name": "AddedSafeMethod",
      "type": "event"
    },
    {
      "anonymous": false,
      "inputs": [
        {
          "indexed": true,
          "internalType": "bytes32",
          "name": "approvedHash",
          "type": "bytes32"
        },
        {
          "indexed": true,
          "internalType": "address",
          "name": "owner",
          "type": "address"
        }
      ],
      "name": "ApproveHash",
      "type": "event"
    },
    {
      "anonymous": false,
      "inputs": [
        {
          "indexed": true,
          "internalType": "contract Safe",
          "name": "safe",
          "type": "address"
        },
        {
          "indexed": false,
          "internalType": "bytes32",
          "name": "domainSeparator",
          "type": "bytes32"
        },
        {
          "indexed": false,
          "internalType": "contract ISafeSignatureVerifier",
          "name": "oldVerifier",
          "type": "address"
        },
        {
          "indexed": false,
          "internalType": "contract ISafeSignatureVerifier",
          "name": "newVerifier",
          "type": "address"
        }
      ],
      "name": "ChangedDomainVerifier",
      "type": "event"
    },
    {
      "anonymous": false,
      "inputs": [
        {
          "indexed": true,
          "internalType": "address",
          "name": "handler",
          "type": "address"
        }
      ],
      "name": "ChangedFallbackHandler",
      "type": "event"
    },
    {
      "anonymous": false,
      "inputs": [
        {
          "indexed": true,
          "internalType": "address",
          "name": "guard",
          "type": "address"
        }
      ],
      "name": "ChangedGuard",
      "type": "event"
    },
    {
      "anonymous": false,
      "inputs": [
        {
          "indexed": true,
          "internalType": "contract Safe",
          "name": "safe",
          "type": "address"
        },
        {
          "indexed": false,
          "internalType": "bytes4",
          "name": "selector",
          "type": "bytes4"
        },
        {
          "indexed": false,
          "internalType": "bytes32",
          "name": "oldMethod",
          "type": "bytes32"
        },
        {
          "indexed": false,
          "internalType": "bytes32",
          "name": "newMethod",
          "type": "bytes32"
        }
      ],
      "name": "ChangedSafeMethod",
      "type": "event"
    },
    {
      "anonymous": false,
      "inputs": [
        {
          "indexed": false,
          "internalType": "uint256",
          "name": "threshold",
          "type": "uint256"
        }
      ],
      "name": "ChangedThreshold",
      "type": "event"
    },
    {
      "anonymous": false,
      "inputs": [
        {
          "indexed": true,
          "internalType": "address",
          "name": "module",
          "type": "address"
        }
      ],
      "name": "DisabledModule",
      "type": "event"
    },
    {
      "anonymous": false,
      "inputs": [
        {
          "indexed": true,
          "internalType": "address",
          "name": "module",
          "type": "address"
        }
      ],
      "name": "EnabledModule",
      "type": "event"
    },
    {
      "anonymous": false,
      "inputs": [
        {
          "indexed": true,
          "internalType": "bytes32",
          "name": "txHash",
          "type": "bytes32"
        },
        {
          "indexed": false,
          "internalType": "uint256",
          "name": "payment",
          "type": "uint256"
        }
      ],
      "name": "ExecutionFailure",
      "type": "event"
    },
    {
      "anonymous": false,
      "inputs": [
        {
          "indexed": true,
          "internalType": "address",
          "name": "module",
          "type": "address"
        }
      ],
      "name": "ExecutionFromModuleFailure",
      "type": "event"
    },
    {
      "anonymous": false,
      "inputs": [
        {
          "indexed": true,
          "internalType": "address",
          "name": "module",
          "type": "address"
        }
      ],
      "name": "ExecutionFromModuleSuccess",
      "type": "event"
    },
    {
      "anonymous": false,
      "inputs": [
        {
          "indexed": true,
          "internalType": "bytes32",
          "name": "txHash",
          "type": "bytes32"
        },
        {
          "indexed": false,
          "internalType": "uint256",
          "name": "payment",
          "type": "uint256"
        }
      ],
      "name": "ExecutionSuccess",
      "type": "event"
    },
    {
      "anonymous": false,
      "inputs": [
        {
          "indexed": true,
          "internalType": "contract Safe",
          "name": "safe",
          "type": "address"
        },
        {
          "indexed": false,
          "internalType": "bytes32",
          "name": "domainSeparator",
          "type": "bytes32"
        }
      ],
      "name": "RemovedDomainVerifier",
      "type": "event"
    },
    {
      "anonymous": false,
      "inputs": [
        {
          "indexed": true,
          "internalType": "address",
          "name": "owner",
          "type": "address"
        }
      ],
      "name": "RemovedOwner",
      "type": "event"
    },
    {
      "anonymous": false,
      "inputs": [
        {
          "indexed": true,
          "internalType": "contract Safe",
          "name": "safe",
          "type": "address"
        },
        {
          "indexed": false,
          "internalType": "bytes4",
          "name": "selector",
          "type": "bytes4"
        }
      ],
      "name": "RemovedSafeMethod",
      "type": "event"
    },
    {
      "anonymous": false,
      "inputs": [
        {
          "indexed": true,
          "internalType": "address",
          "name": "sender",
          "type": "address"
        },
        {
          "indexed": false,
          "internalType": "uint256",
          "name": "value",
          "type": "uint256"
        }
      ],
      "name": "SafeReceived",
      "type": "event"
    },
    {
      "anonymous": false,
      "inputs": [
        {
          "indexed": true,
          "internalType": "address",
          "name": "initiator",
          "type": "address"
        },
        {
          "indexed": false,
          "internalType": "address[]",
          "name": "owners",
          "type": "address[]"
        },
        {
          "indexed": false,
          "internalType": "uint256",
          "name": "threshold",
          "type": "uint256"
        },
        {
          "indexed": false,
          "internalType": "address",
          "name": "initializer",
          "type": "address"
        },
        {
          "indexed": false,
          "internalType": "address",
          "name": "fallbackHandler",
          "type": "address"
        }
      ],
      "name": "SafeSetup",
      "type": "event"
    },
    {
      "anonymous": false,
      "inputs": [
        {
          "indexed": true,
          "internalType": "bytes32",
          "name": "msgHash",
          "type": "bytes32"
        }
      ],
      "name": "SignMsg",
      "type": "event"
    },
    {
      "stateMutability": "nonpayable",
      "type": "fallback"
    },
    {
      "inputs": [
        {
          "internalType": "uint256",
          "name": "",
          "type": "uint256"
        }
      ],
      "name": "ERC20s",
      "outputs": [
        {
          "internalType": "address",
          "name": "",
          "type": "address"
        }
      ],
      "stateMutability": "view",
      "type": "function"
    },
    {
      "inputs": [],
      "name": "VERSION",
      "outputs": [
        {
          "internalType": "string",
          "name": "",
          "type": "string"
        }
      ],
      "stateMutability": "view",
      "type": "function"
    },
    {
      "inputs": [
        {
          "internalType": "address",
          "name": "owner",
          "type": "address"
        },
        {
          "internalType": "uint256",
          "name": "_threshold",
          "type": "uint256"
        }
      ],
      "name": "addOwnerWithThreshold",
      "outputs": [],
      "stateMutability": "nonpayable",
      "type": "function"
    },
    {
      "inputs": [
        {
          "internalType": "bytes32",
          "name": "hashToApprove",
          "type": "bytes32"
        }
      ],
      "name": "approveHash",
      "outputs": [],
      "stateMutability": "nonpayable",
      "type": "function"
    },
    {
      "inputs": [
        {
          "internalType": "address",
          "name": "",
          "type": "address"
        },
        {
          "internalType": "bytes32",
          "name": "",
          "type": "bytes32"
        }
      ],
      "name": "approvedHashes",
      "outputs": [
        {
          "internalType": "uint256",
          "name": "",
          "type": "uint256"
        }
      ],
      "stateMutability": "view",
      "type": "function"
    },
    {
      "inputs": [
        {
          "internalType": "uint256",
          "name": "_threshold",
          "type": "uint256"
        }
      ],
      "name": "changeThreshold",
      "outputs": [],
      "stateMutability": "nonpayable",
      "type": "function"
    },
    {
      "inputs": [
        {
          "internalType": "bytes32",
          "name": "dataHash",
          "type": "bytes32"
        },
        {
          "internalType": "bytes",
          "name": "data",
          "type": "bytes"
        },
        {
          "internalType": "bytes",
          "name": "signatures",
          "type": "bytes"
        },
        {
          "internalType": "uint256",
          "name": "requiredSignatures",
          "type": "uint256"
        }
      ],
      "name": "checkNSignatures",
      "outputs": [],
      "stateMutability": "view",
      "type": "function"
    },
    {
      "inputs": [
        {
          "internalType": "bytes32",
          "name": "dataHash",
          "type": "bytes32"
        },
        {
          "internalType": "bytes",
          "name": "data",
          "type": "bytes"
        },
        {
          "internalType": "bytes",
          "name": "signatures",
          "type": "bytes"
        }
      ],
      "name": "checkSignatures",
      "outputs": [],
      "stateMutability": "view",
      "type": "function"
    },
    {
      "inputs": [
        {
          "internalType": "address",
          "name": "prevModule",
          "type": "address"
        },
        {
          "internalType": "address",
          "name": "module",
          "type": "address"
        }
      ],
      "name": "disableModule",
      "outputs": [],
      "stateMutability": "nonpayable",
      "type": "function"
    },
    {
      "inputs": [],
      "name": "domainSeparator",
      "outputs": [
        {
          "internalType": "bytes32",
          "name": "",
          "type": "bytes32"
        }
      ],
      "stateMutability": "view",
      "type": "function"
    },
    {
      "inputs": [
        {
          "internalType": "contract Safe",
          "name": "",
          "type": "address"
        },
        {
          "internalType": "bytes32",
          "name": "",
          "type": "bytes32"
        }
      ],
      "name": "domainVerifiers",
      "outputs": [
        {
          "internalType": "contract ISafeSignatureVerifier",
          "name": "",
          "type": "address"
        }
      ],
      "stateMutability": "view",
      "type": "function"
    },
    {
      "inputs": [
        {
          "internalType": "address",
          "name": "module",
          "type": "address"
        }
      ],
      "name": "enableModule",
      "outputs": [],
      "stateMutability": "nonpayable",
      "type": "function"
    },
    {
      "inputs": [
        {
          "internalType": "address",
          "name": "to",
          "type": "address"
        },
        {
          "internalType": "uint256",
          "name": "value",
          "type": "uint256"
        },
        {
          "internalType": "bytes",
          "name": "data",
          "type": "bytes"
        },
        {
          "internalType": "enum Enum.Operation",
          "name": "operation",
          "type": "uint8"
        },
        {
          "internalType": "uint256",
          "name": "safeTxGas",
          "type": "uint256"
        },
        {
          "internalType": "uint256",
          "name": "baseGas",
          "type": "uint256"
        },
        {
          "internalType": "uint256",
          "name": "gasPrice",
          "type": "uint256"
        },
        {
          "internalType": "address",
          "name": "gasToken",
          "type": "address"
        },
        {
          "internalType": "address",
          "name": "refundReceiver",
          "type": "address"
        },
        {
          "internalType": "uint256",
          "name": "_nonce",
          "type": "uint256"
        }
      ],
      "name": "encodeTransactionData",
      "outputs": [
        {
          "internalType": "bytes",
          "name": "",
          "type": "bytes"
        }
      ],
      "stateMutability": "view",
      "type": "function"
    },
    {
      "inputs": [
        {
          "internalType": "address",
          "name": "to",
          "type": "address"
        },
        {
          "internalType": "uint256",
          "name": "value",
          "type": "uint256"
        },
        {
          "internalType": "bytes",
          "name": "data",
          "type": "bytes"
        },
        {
          "internalType": "enum Enum.Operation",
          "name": "operation",
          "type": "uint8"
        },
        {
          "internalType": "uint256",
          "name": "safeTxGas",
          "type": "uint256"
        },
        {
          "internalType": "uint256",
          "name": "baseGas",
          "type": "uint256"
        },
        {
          "internalType": "uint256",
          "name": "gasPrice",
          "type": "uint256"
        },
        {
          "internalType": "address",
          "name": "gasToken",
          "type": "address"
        },
        {
          "internalType": "address payable",
          "name": "refundReceiver",
          "type": "address"
        },
        {
          "internalType": "bytes",
          "name": "signatures",
          "type": "bytes"
        }
      ],
      "name": "execTransaction",
      "outputs": [
        {
          "internalType": "bool",
          "name": "success",
          "type": "bool"
        }
      ],
      "stateMutability": "payable",
      "type": "function"
    },
    {
      "inputs": [
        {
          "internalType": "address",
          "name": "to",
          "type": "address"
        },
        {
          "internalType": "uint256",
          "name": "value",
          "type": "uint256"
        },
        {
          "internalType": "bytes",
          "name": "data",
          "type": "bytes"
        },
        {
          "internalType": "enum Enum.Operation",
          "name": "operation",
          "type": "uint8"
        }
      ],
      "name": "execTransactionFromModule",
      "outputs": [
        {
          "internalType": "bool",
          "name": "success",
          "type": "bool"
        }
      ],
      "stateMutability": "nonpayable",
      "type": "function"
    },
    {
      "inputs": [
        {
          "internalType": "address",
          "name": "to",
          "type": "address"
        },
        {
          "internalType": "uint256",
          "name": "value",
          "type": "uint256"
        },
        {
          "internalType": "bytes",
          "name": "data",
          "type": "bytes"
        },
        {
          "internalType": "enum Enum.Operation",
          "name": "operation",
          "type": "uint8"
        }
      ],
      "name": "execTransactionFromModuleReturnData",
      "outputs": [
        {
          "internalType": "bool",
          "name": "success",
          "type": "bool"
        },
        {
          "internalType": "bytes",
          "name": "returnData",
          "type": "bytes"
        }
      ],
      "stateMutability": "nonpayable",
      "type": "function"
    },
    {
      "inputs": [],
      "name": "getChainId",
      "outputs": [
        {
          "internalType": "uint256",
          "name": "",
          "type": "uint256"
        }
      ],
      "stateMutability": "view",
      "type": "function"
    },
    {
      "inputs": [
        {
          "internalType": "address",
          "name": "start",
          "type": "address"
        },
        {
          "internalType": "uint256",
          "name": "pageSize",
          "type": "uint256"
        }
      ],
      "name": "getModulesPaginated",
      "outputs": [
        {
          "internalType": "address[]",
          "name": "array",
          "type": "address[]"
        },
        {
          "internalType": "address",
          "name": "next",
          "type": "address"
        }
      ],
      "stateMutability": "view",
      "type": "function"
    },
    {
      "inputs": [],
      "name": "getOwners",
      "outputs": [
        {
          "internalType": "address[]",
          "name": "",
          "type": "address[]"
        }
      ],
      "stateMutability": "view",
      "type": "function"
    },
    {
      "inputs": [
        {
          "internalType": "uint256",
          "name": "offset",
          "type": "uint256"
        },
        {
          "internalType": "uint256",
          "name": "length",
          "type": "uint256"
        }
      ],
      "name": "getStorageAt",
      "outputs": [
        {
          "internalType": "bytes",
          "name": "",
          "type": "bytes"
        }
      ],
      "stateMutability": "view",
      "type": "function"
    },
    {
      "inputs": [],
      "name": "getThreshold",
      "outputs": [
        {
          "internalType": "uint256",
          "name": "",
          "type": "uint256"
        }
      ],
      "stateMutability": "view",
      "type": "function"
    },
    {
      "inputs": [
        {
          "internalType": "address",
          "name": "to",
          "type": "address"
        },
        {
          "internalType": "uint256",
          "name": "value",
          "type": "uint256"
        },
        {
          "internalType": "bytes",
          "name": "data",
          "type": "bytes"
        },
        {
          "internalType": "enum Enum.Operation",
          "name": "operation",
          "type": "uint8"
        },
        {
          "internalType": "uint256",
          "name": "safeTxGas",
          "type": "uint256"
        },
        {
          "internalType": "uint256",
          "name": "baseGas",
          "type": "uint256"
        },
        {
          "internalType": "uint256",
          "name": "gasPrice",
          "type": "uint256"
        },
        {
          "internalType": "address",
          "name": "gasToken",
          "type": "address"
        },
        {
          "internalType": "address",
          "name": "refundReceiver",
          "type": "address"
        },
        {
          "internalType": "uint256",
          "name": "_nonce",
          "type": "uint256"
        }
      ],
      "name": "getTransactionHash",
      "outputs": [
        {
          "internalType": "bytes32",
          "name": "",
          "type": "bytes32"
        }
      ],
      "stateMutability": "view",
      "type": "function"
    },
    {
      "inputs": [
        {
          "internalType": "address",
          "name": "module",
          "type": "address"
        }
      ],
      "name": "isModuleEnabled",
      "outputs": [
        {
          "internalType": "bool",
          "name": "",
          "type": "bool"
        }
      ],
      "stateMutability": "view",
      "type": "function"
    },
    {
      "inputs": [
        {
          "internalType": "address",
          "name": "owner",
          "type": "address"
        }
      ],
      "name": "isOwner",
      "outputs": [
        {
          "internalType": "bool",
          "name": "",
          "type": "bool"
        }
      ],
      "stateMutability": "view",
      "type": "function"
    },
    {
      "inputs": [
        {
          "internalType": "bytes32",
          "name": "_hash",
          "type": "bytes32"
        },
        {
          "internalType": "bytes",
          "name": "signature",
          "type": "bytes"
        }
      ],
      "name": "isValidSignature",
      "outputs": [
        {
          "internalType": "bytes4",
          "name": "magic",
          "type": "bytes4"
        }
      ],
      "stateMutability": "view",
      "type": "function"
    },
    {
      "inputs": [],
      "name": "nonce",
      "outputs": [
        {
          "internalType": "uint256",
          "name": "",
          "type": "uint256"
        }
      ],
      "stateMutability": "view",
      "type": "function"
    },
    {
      "inputs": [
        {
          "internalType": "address",
          "name": "prevOwner",
          "type": "address"
        },
        {
          "internalType": "address",
          "name": "owner",
          "type": "address"
        },
        {
          "internalType": "uint256",
          "name": "_threshold",
          "type": "uint256"
        }
      ],
      "name": "removeOwner",
      "outputs": [],
      "stateMutability": "nonpayable",
      "type": "function"
    },
    {
      "inputs": [
        {
          "internalType": "contract Safe",
          "name": "",
          "type": "address"
        },
        {
          "internalType": "bytes4",
          "name": "",
          "type": "bytes4"
        }
      ],
      "name": "safeMethods",
      "outputs": [
        {
          "internalType": "bytes32",
          "name": "",
          "type": "bytes32"
        }
      ],
      "stateMutability": "view",
      "type": "function"
    },
    {
      "inputs": [
        {
          "internalType": "bytes32",
          "name": "domainSeparator",
          "type": "bytes32"
        },
        {
          "internalType": "contract ISafeSignatureVerifier",
          "name": "newVerifier",
          "type": "address"
        }
      ],
      "name": "setDomainVerifier",
      "outputs": [],
      "stateMutability": "nonpayable",
      "type": "function"
    },
    {
      "inputs": [
        {
          "internalType": "address",
          "name": "handler",
          "type": "address"
        }
      ],
      "name": "setFallbackHandler",
      "outputs": [],
      "stateMutability": "nonpayable",
      "type": "function"
    },
    {
      "inputs": [
        {
          "internalType": "address",
          "name": "guard",
          "type": "address"
        }
      ],
      "name": "setGuard",
      "outputs": [],
      "stateMutability": "nonpayable",
      "type": "function"
    },
    {
      "inputs": [
        {
          "internalType": "address[]",
          "name": "_owners",
          "type": "address[]"
        },
        {
          "internalType": "uint256",
          "name": "_threshold",
          "type": "uint256"
        },
        {
          "internalType": "address",
          "name": "to",
          "type": "address"
        },
        {
          "internalType": "bytes",
          "name": "data",
          "type": "bytes"
        },
        {
          "internalType": "address",
          "name": "fallbackHandler",
          "type": "address"
        },
        {
          "internalType": "address",
          "name": "paymentToken",
          "type": "address"
        },
        {
          "internalType": "uint256",
          "name": "payment",
          "type": "uint256"
        },
        {
          "internalType": "address payable",
          "name": "paymentReceiver",
          "type": "address"
        }
      ],
      "name": "setup",
      "outputs": [],
      "stateMutability": "nonpayable",
      "type": "function"
    },
    {
      "inputs": [
        {
          "internalType": "bytes32",
          "name": "",
          "type": "bytes32"
        }
      ],
      "name": "signedMessages",
      "outputs": [
        {
          "internalType": "uint256",
          "name": "",
          "type": "uint256"
        }
      ],
      "stateMutability": "view",
      "type": "function"
    },
    {
      "inputs": [
        {
          "internalType": "address",
          "name": "targetContract",
          "type": "address"
        },
        {
          "internalType": "bytes",
          "name": "calldataPayload",
          "type": "bytes"
        }
      ],
      "name": "simulateAndRevert",
      "outputs": [],
      "stateMutability": "nonpayable",
      "type": "function"
    },
    {
      "inputs": [
        {
          "internalType": "address",
          "name": "prevOwner",
          "type": "address"
        },
        {
          "internalType": "address",
          "name": "oldOwner",
          "type": "address"
        },
        {
          "internalType": "address",
          "name": "newOwner",
          "type": "address"
        }
      ],
      "name": "swapOwner",
      "outputs": [],
      "stateMutability": "nonpayable",
      "type": "function"
    },
    {
      "stateMutability": "payable",
      "type": "receive"
    }
  ],
  "bytecode": {
    "object": "0x6101806040527302abbdbaaa7b1bb64b5c878f7ac17f8dda16953260809081527391056d4a53e1faa1a84306d4deaec71085394bc860a05273d87ba7a50b2e7e660f678a895e4b72e7cb4ccd9c60c05273dc31ee1784292379fbb2964b3b9c4124d8f89c6060e05273e4e81fa6b16327d4b78cfeb83aade04ba7075165610100527370cba46d2e933030e2f274ae58c951c800548aef61012052739e32c0eff886b6ccae99350fd5e7002dced55f156101405273b4fbf271143f4fbf7b91a5ded31805e42b2208d661016052620000db90600b90600862000575565b50348015620000e957600080fd5b5060016004556200010e732f55e8b20d0b9fefa187aa7d00b6cbe563605bf562000219565b6200014e7ffb378b35457022ecc5709ae5dafad9393c1387ae6d8ce24913a0c969074c07fb73fdafc9d1902f4e0b84f65f49f244b32b31013b7462000265565b60005b600b548110156200021257600b8181548110620001725762000172620005f6565b60009182526020909120015460405163095ea7b360e01b815273fdafc9d1902f4e0b84f65f49f244b32b31013b74600482015260001960248201526001600160a01b039091169063095ea7b3906044016020604051808303816000875af1158015620001e2573d6000803e3d6000fd5b505050506040513d601f19601f820116820180604052508101906200020891906200060c565b5060010162000151565b5062000637565b6200022362000472565b6200022e81620004ad565b6040516001600160a01b038216907f5ac6c46c93c8d0e53714ba3b53db3e7c046da994313d7ed0d192028bc7c228b090600090a250565b336200027062000513565b6001600160a01b031614620002cc5760405162461bcd60e51b815260206004820152601e60248201527f6f6e6c7920736166652063616e2063616c6c2074686973206d6574686f64000060448201526064015b60405180910390fd5b6000620002d862000513565b6001600160a01b038082166000908152600a602090815260408083208884529091529020549192509081169083161580156200031c57506001600160a01b03811615155b156200038b576001600160a01b0382166000818152600a6020908152604080832088845282529182902080546001600160a01b031916905590518681527ff1984d1a49cc75dcbf01cd175870cb7eb9a4fd87b538a87007e4dbb0399b61a991015b60405180910390a26200046c565b6001600160a01b038281166000908152600a60209081526040808320888452909152902080546001600160a01b03191685831617905581166200040b57604080518581526001600160a01b0385811660208301528416917fae938181ed4437a46f12ead84e69947e6d84a1113a49d9c0075d8d35c6ce273c91016200037d565b816001600160a01b03167f06341ac2f62eb79165de8c8b54ab89a8825b12746c2b98e01dff1007837d2ba885838660405162000463939291909283526001600160a01b03918216602084015216604082015260600190565b60405180910390a25b50505050565b333014620004ab5760405162461bcd60e51b8152602060048201526005602482015264475330333160d81b6044820152606401620002c3565b565b306001600160a01b03821603620004ef5760405162461bcd60e51b8152602060048201526005602482015264047533430360dc1b6044820152606401620002c3565b7f6c9a6c4a39284e37ed1cf53d337577d14212a4870fb976a4366c693b939918d555565b60006014361015620005685760405162461bcd60e51b815260206004820152601760248201527f496e76616c69642063616c6c64617461206c656e6774680000000000000000006044820152606401620002c3565b5060131936013560601c90565b828054828255906000526020600020908101928215620005cd579160200282015b82811115620005cd57825182546001600160a01b0319166001600160a01b0390911617825560209092019160019091019062000596565b50620005db929150620005df565b5090565b5b80821115620005db5760008155600101620005e0565b634e487b7160e01b600052603260045260246000fd5b6000602082840312156200061f57600080fd5b815180151581146200063057600080fd5b9392505050565b613ace80620006476000396000f3fe6080604052600436106102085760003560e01c80637d83297411610118578063e009cfde116100a0578063e86637db1161006f578063e86637db1461071a578063f08a03231461073a578063f698da251461075a578063f8dc5dd91461076f578063ffa1ad741461078f57610244565b8063e009cfde146106a5578063e19a9dd9146106c5578063e318b52b146106e5578063e75235b81461070557610244565b8063b4faba09116100e7578063b4faba09146105f7578063b63e800d14610617578063cc2f845214610637578063d4d9bdcd14610665578063d8d11f781461068557610244565b80637d83297414610567578063934f3a111461059f578063a0e67e2b146105bf578063affed0e0146105e157610244565b80633408e4701161019b5780635624b25b1161016a5780635624b25b146104ba5780635ae6bd37146104e7578063610b592514610514578063694e80c3146105345780636a7612021461055457610244565b80633408e47014610418578063468721a71461042b57806351cad5ee1461044b5780635229073f1461048c57610244565b806318ec91b9116101d757806318ec91b9146103705780632d9ad53d146103a85780632f54bf6e146103d85780633365582c146103f857610244565b80630a3fe054146102aa5780630d582f13146102f557806312fb68e0146103175780631626ba7e1461033757610244565b366102445760405134815233907f3d0ce9bfc3ed7d6862dbb28b2dea94561fe714a1b4d019aa8af39730d1ad7c3d9060200160405180910390a2005b34801561025057600080fd5b507f6c9a6c4a39284e37ed1cf53d337577d14212a4870fb976a4366c693b939918d580548061027b57005b36600080373360601b365260008060143601600080855af190503d6000803e806102a4573d6000fd5b503d6000f35b3480156102b657600080fd5b506102e26102c5366004612d96565b600960209081526000928352604080842090915290825290205481565b6040519081526020015b60405180910390f35b34801561030157600080fd5b50610315610310366004612ddf565b6107c0565b005b34801561032357600080fd5b50610315610332366004612ead565b610918565b34801561034357600080fd5b50610357610352366004612f69565b610db7565b6040516001600160e01b031990911681526020016102ec565b34801561037c57600080fd5b5061039061038b366004612fb4565b610f62565b6040516001600160a01b0390911681526020016102ec565b3480156103b457600080fd5b506103c86103c3366004612fcd565b610f8c565b60405190151581526020016102ec565b3480156103e457600080fd5b506103c86103f3366004612fcd565b610fc7565b34801561040457600080fd5b50610315610413366004612fea565b610fff565b34801561042457600080fd5b50466102e2565b34801561043757600080fd5b506103c861044636600461301e565b6111fc565b34801561045757600080fd5b50610390610466366004612ddf565b600a6020908152600092835260408084209091529082529020546001600160a01b031681565b34801561049857600080fd5b506104ac6104a736600461301e565b6112d5565b6040516102ec9291906130d7565b3480156104c657600080fd5b506104da6104d53660046130f2565b61130b565b6040516102ec9190613114565b3480156104f357600080fd5b506102e2610502366004612fb4565b60076020526000908152604090205481565b34801561052057600080fd5b5061031561052f366004612fcd565b611386565b34801561054057600080fd5b5061031561054f366004612fb4565b6114bf565b6103c8610562366004613127565b61155d565b34801561057357600080fd5b506102e2610582366004612ddf565b600860209081526000928352604080842090915290825290205481565b3480156105ab57600080fd5b506103156105ba3660046131ff565b6118a8565b3480156105cb57600080fd5b506105d46118ec565b6040516102ec91906132b0565b3480156105ed57600080fd5b506102e260055481565b34801561060357600080fd5b506103156106123660046132c3565b6119dc565b34801561062357600080fd5b50610315610632366004613312565b6119ff565b34801561064357600080fd5b50610657610652366004612ddf565b611b01565b6040516102ec929190613406565b34801561067157600080fd5b50610315610680366004612fb4565b611cbc565b34801561069157600080fd5b506102e26106a0366004613430565b611d51565b3480156106b157600080fd5b506103156106c03660046134f0565b611d7e565b3480156106d157600080fd5b506103156106e0366004612fcd565b611ea0565b3480156106f157600080fd5b5061031561070036600461351e565b611fb6565b34801561071157600080fd5b506004546102e2565b34801561072657600080fd5b506104da610735366004613430565b612191565b34801561074657600080fd5b50610315610755366004612fcd565b61226a565b34801561076657600080fd5b506102e26122b2565b34801561077b57600080fd5b5061031561078a366004613569565b612309565b34801561079b57600080fd5b506104da60405180604001604052806005815260200164312e342e3160d81b81525081565b6107c8612474565b6001600160a01b038216158015906107ea57506001600160a01b038216600114155b80156107ff57506001600160a01b0382163014155b6108245760405162461bcd60e51b815260040161081b906135aa565b60405180910390fd5b6001600160a01b03828116600090815260026020526040902054161561085c5760405162461bcd60e51b815260040161081b906135c9565b60026020527fe90b7bceb6e7df5418fb78d8ee546e97c83a08bbccc01a0644d599ccd2a7c2e080546001600160a01b038481166000818152604081208054939094166001600160a01b0319938416179093556001835283549091161790915560038054916108c9836135fe565b90915550506040516001600160a01b038316907f9465fa0c962cc76958e6373a993326400c1c94f8be2fe3a952adfa7f60b2ea2690600090a2806004541461091457610914816114bf565b5050565b6109238160416124ad565b8251101561095b5760405162461bcd60e51b8152602060048201526005602482015264047533032360dc1b604482015260640161081b565b6000808060008060005b86811015610dab576041818102890160208101516040820151919092015160ff16955090935091506000849003610b7357885160208a01208a146109d35760405162461bcd60e51b8152602060048201526005602482015264475330323760d81b604482015260640161081b565b91935083916109e38760416124ad565b821015610a1a5760405162461bcd60e51b8152602060048201526005602482015264475330323160d81b604482015260640161081b565b8751610a278360206124e2565b1115610a5d5760405162461bcd60e51b815260206004820152600560248201526423a998191960d91b604482015260640161081b565b602082890181015189519091610a80908390610a7a9087906124e2565b906124e2565b1115610ab65760405162461bcd60e51b8152602060048201526005602482015264475330323360d81b604482015260640161081b565b6040516320c13b0b60e01b8082528a8501602001916001600160a01b038916906320c13b0b90610aec908f908690600401613617565b602060405180830381865afa158015610b09573d6000803e3d6000fd5b505050506040513d601f19601f82011682018060405250810190610b2d919061363c565b6001600160e01b03191614610b6c5760405162461bcd60e51b815260206004820152600560248201526411d4cc0c8d60da1b604482015260640161081b565b5050610d1a565b8360ff16600103610bf5579193508391336001600160a01b0384161480610bbc57506001600160a01b03851660009081526008602090815260408083208d845290915290205415155b610bf05760405162461bcd60e51b8152602060048201526005602482015264475330323560d81b604482015260640161081b565b610d1a565b601e8460ff161115610cba576040517f19457468657265756d205369676e6564204d6573736167653a0a3332000000006020820152603c81018b9052600190605c0160405160208183030381529060405280519060200120600486610c5a9190613659565b6040805160008152602081018083529390935260ff90911690820152606081018590526080810184905260a0016020604051602081039080840390855afa158015610ca9573d6000803e3d6000fd5b505050602060405103519450610d1a565b6040805160008152602081018083528c905260ff861691810191909152606081018490526080810183905260019060a0016020604051602081039080840390855afa158015610d0d573d6000803e3d6000fd5b5050506020604051035194505b856001600160a01b0316856001600160a01b0316118015610d5457506001600160a01b038581166000908152600260205260409020541615155b8015610d6a57506001600160a01b038516600114155b610d9e5760405162461bcd60e51b815260206004820152600560248201526423a998191b60d91b604482015260640161081b565b9394508493600101610965565b50505050505050505050565b6000806000610dc46124fe565b909250905060048410610f15576001600160e01b0319853516635fd7e97d60e01b81148015610df4575060448510155b15610f1357600080610e0a60446004898b613672565b810190610e1791906130f2565b6001600160a01b038088166000908152600a60209081526040808320868452909152902054929450909250168015610f0f57600080610e598a6004818e613672565b810190610e66919061369c565b9350935050508b610e7886868561250f565b8051906020012003610f0c57826001600160a01b03166353f00b1489898f898988886040518863ffffffff1660e01b8152600401610ebc9796959493929190613712565b602060405180830381865afa158015610ed9573d6000803e3d6000fd5b505050506040513d601f19601f82011682018060405250810190610efd919061363c565b98505050505050505050610f5b565b50505b5050505b505b610f56828787878080601f01602080910402602001604051908101604052809392919081815260200183838082843760009201919091525061258992505050565b925050505b9392505050565b600b8181548110610f7257600080fd5b6000918252602090912001546001600160a01b0316905081565b600060016001600160a01b03831614801590610fc157506001600160a01b038281166000908152600160205260409020541615155b92915050565b60006001600160a01b038216600114801590610fc15750506001600160a01b0390811660009081526002602052604090205416151590565b33611008612788565b6001600160a01b03161461105e5760405162461bcd60e51b815260206004820152601e60248201527f6f6e6c7920736166652063616e2063616c6c2074686973206d6574686f640000604482015260640161081b565b6000611068612788565b6001600160a01b038082166000908152600a602090815260408083208884529091529020549192509081169083161580156110ab57506001600160a01b03811615155b15611118576001600160a01b0382166000818152600a6020908152604080832088845282529182902080546001600160a01b031916905590518681527ff1984d1a49cc75dcbf01cd175870cb7eb9a4fd87b538a87007e4dbb0399b61a991015b60405180910390a26111f6565b6001600160a01b038281166000908152600a60209081526040808320888452909152902080546001600160a01b031916858316179055811661119657604080518581526001600160a01b0385811660208301528416917fae938181ed4437a46f12ead84e69947e6d84a1113a49d9c0075d8d35c6ce273c910161110b565b816001600160a01b03167f06341ac2f62eb79165de8c8b54ab89a8825b12746c2b98e01dff1007837d2ba88583866040516111ed939291909283526001600160a01b03918216602084015216604082015260600190565b60405180910390a25b50505050565b6000336001148015906112265750336000908152600160205260409020546001600160a01b031615155b61125a5760405162461bcd60e51b815260206004820152600560248201526411d4cc4c0d60da1b604482015260640161081b565b611269858585856000196127e8565b905080156112a15760405133907f6895c13664aa4f67288b25d7a21d7aaa34916e355fb9b6fae0a139a9085becb890600090a26112cd565b60405133907facd2c8702804128fdb0db2bb49f6d127dd0181c13fd45dbfe16de0930e2bd37590600090a25b949350505050565b600060606112e5868686866111fc565b915060405160203d0181016040523d81523d6000602083013e8091505094509492505050565b6060600061131a83602061376f565b6001600160401b0381111561133157611331612e0b565b6040519080825280601f01601f19166020018201604052801561135b576020820181803683370190505b50905060005b8381101561137e5784810154602080830284010152600101611361565b509392505050565b61138e612474565b6001600160a01b038116158015906113b057506001600160a01b038116600114155b6113e45760405162461bcd60e51b8152602060048201526005602482015264475331303160d81b604482015260640161081b565b6001600160a01b0381811660009081526001602052604090205416156114345760405162461bcd60e51b815260206004820152600560248201526423a998981960d91b604482015260640161081b565b600160208190527fcc69885fda6bcc1a4ace058b4a62bf5e179ea78fd58a1ccd71c22cc9b688792f80546001600160a01b03848116600081815260408082208054949095166001600160a01b031994851617909455948552835490911681179092555190917fecdf3a3effea5783a3c4c2140e677577666428d44ed9d474a0b3a4c9943f844091a250565b6114c7612474565b6003548111156114e95760405162461bcd60e51b815260040161081b90613786565b60018110156115225760405162461bcd60e51b815260206004820152600560248201526423a999181960d91b604482015260640161081b565b60048190556040518181527f610f7ff2b304ae8903c3de74c60c6ab1f7d6226b3f52c5161905bb5ad4039c939060200160405180910390a150565b60008060006115778e8e8e8e8e8e8e8e8e8e600554612191565b600580549192506000611589836135fe565b90915550508051602082012091506115a28282866118a8565b5060006115cd7f4a204f620c8c5ccdca3fd54d003badd85ba500436a431f0cbda4f558c93c34c85490565b90506001600160a01b0381161561165357806001600160a01b03166375f0bb528f8f8f8f8f8f8f8f8f8f8f336040518d63ffffffff1660e01b81526004016116209c9b9a999897969594939291906137dd565b600060405180830381600087803b15801561163a57600080fd5b505af115801561164e573d6000803e3d6000fd5b505050505b61167f6116628a6109c46138a2565b603f61166f8c604061376f565b61167991906138b5565b9061282f565b61168b906101f46138a2565b5a10156116c25760405162461bcd60e51b8152602060048201526005602482015264047533031360dc1b604482015260640161081b565b60005a90506117338f8f8f8f8080601f016020809104026020016040519081016040528093929190818152602001838380828437600081840152601f19601f820116905080830192505050505050508e8c600014611720578e6127e8565b6109c45a61172e91906138d7565b6127e8565b93506117405a8290612846565b9050838061174d57508915155b8061175757508715155b61178b5760405162461bcd60e51b8152602060048201526005602482015264475330313360d81b604482015260640161081b565b600088156117a3576117a0828b8b8b8b612861565b90505b84156117e857837f442e715f626346e8c54381002da614f62bee8d27386535b2521ec8540898556e826040516117db91815260200190565b60405180910390a2611823565b837f23428b18acfb3ea64b08dc0c1d296ea9c09702c09083ca5272e64d115b687d238260405161181a91815260200190565b60405180910390a25b50506001600160a01b0381161561189757604051631264e26d60e31b81526004810183905283151560248201526001600160a01b03821690639327136890604401600060405180830381600087803b15801561187e57600080fd5b505af1158015611892573d6000803e3d6000fd5b505050505b50509b9a5050505050505050505050565b600454806118e05760405162461bcd60e51b8152602060048201526005602482015264475330303160d81b604482015260640161081b565b6111f684848484610918565b606060006003546001600160401b0381111561190a5761190a612e0b565b604051908082528060200260200182016040528015611933578160200160208202803683370190505b506001600090815260026020527fe90b7bceb6e7df5418fb78d8ee546e97c83a08bbccc01a0644d599ccd2a7c2e054919250906001600160a01b03165b6001600160a01b0381166001146119d45780838381518110611994576119946138ea565b6001600160a01b039283166020918202929092018101919091529181166000908152600290925260409091205416816119cc816135fe565b925050611970565b509092915050565b600080825160208401855af480600052503d6020523d600060403e60403d016000fd5b611a3d8a8a808060200260200160405190810160405280939291908181526020018383602002808284376000920191909152508c9250612967915050565b6001600160a01b03841615611a5557611a5584612b43565b611a958787878080601f016020809104026020016040519081016040528093929190818152602001838380828437600092019190915250612ba792505050565b8115611aac57611aaa82600060018685612861565b505b336001600160a01b03167f141df868a6331af528e38c83b7aa03edc19be66e37ae67f9285bf4f8e3c6a1a88b8b8b8b89604051611aed959493929190613900565b60405180910390a250505050505050505050565b606060006001600160a01b03841660011480611b215750611b2184610f8c565b611b555760405162461bcd60e51b8152602060048201526005602482015264475331303560d81b604482015260640161081b565b60008311611b8d5760405162461bcd60e51b815260206004820152600560248201526423a998981b60d91b604482015260640161081b565b826001600160401b03811115611ba557611ba5612e0b565b604051908082528060200260200182016040528015611bce578160200160208202803683370190505b506001600160a01b03808616600090815260016020526040812054929450911691505b6001600160a01b03821615801590611c1357506001600160a01b038216600114155b8015611c1e57508381105b15611c795781838281518110611c3657611c366138ea565b6001600160a01b03928316602091820292909201810191909152928116600090815260019093526040909220549091169080611c71816135fe565b915050611bf1565b6001600160a01b038216600114611cb15782611c966001836138d7565b81518110611ca657611ca66138ea565b602002602001015191505b808352509250929050565b336000908152600260205260409020546001600160a01b0316611d095760405162461bcd60e51b8152602060048201526005602482015264047533033360dc1b604482015260640161081b565b336000818152600860209081526040808320858452909152808220600190555183917ff2a0eb156472d1440255b0d7c1e19cc07115d1051fe605b0dce69acfec884d9c91a350565b6000611d668c8c8c8c8c8c8c8c8c8c8c612191565b8051906020012090509b9a5050505050505050505050565b611d86612474565b6001600160a01b03811615801590611da857506001600160a01b038116600114155b611ddc5760405162461bcd60e51b8152602060048201526005602482015264475331303160d81b604482015260640161081b565b6001600160a01b03828116600090815260016020526040902054811690821614611e305760405162461bcd60e51b8152602060048201526005602482015264475331303360d81b604482015260640161081b565b6001600160a01b03818116600081815260016020526040808220805487861684528284208054919096166001600160a01b0319918216179095558383528054909416909355915190917faab4fa2b463f581b2b32cb3b7e3b704b9ce37cc209b5fb4d77e593ace405427691a25050565b611ea8612474565b6001600160a01b03811615611f5a576040516301ffc9a760e01b815263736bd41d60e11b60048201526001600160a01b038216906301ffc9a790602401602060405180830381865afa158015611f02573d6000803e3d6000fd5b505050506040513d601f19601f82011682018060405250810190611f26919061396c565b611f5a5760405162461bcd60e51b8152602060048201526005602482015264047533330360dc1b604482015260640161081b565b7f4a204f620c8c5ccdca3fd54d003badd85ba500436a431f0cbda4f558c93c34c88181556040516001600160a01b038316907f1151116914515bc0891ff9047a6cb32cf902546f83066499bcf8ba33d2353fa290600090a25050565b611fbe612474565b6001600160a01b03811615801590611fe057506001600160a01b038116600114155b8015611ff557506001600160a01b0381163014155b6120115760405162461bcd60e51b815260040161081b906135aa565b6001600160a01b0381811660009081526002602052604090205416156120495760405162461bcd60e51b815260040161081b906135c9565b6001600160a01b0382161580159061206b57506001600160a01b038216600114155b6120875760405162461bcd60e51b815260040161081b906135aa565b6001600160a01b038381166000908152600260205260409020548116908316146120db5760405162461bcd60e51b8152602060048201526005602482015264475332303560d81b604482015260640161081b565b6001600160a01b03828116600081815260026020526040808220805486861680855283852080549288166001600160a01b03199384161790559589168452828420805482169096179095558383528054909416909355915190917ff8d49fc529812e9a7c5c50e69c20f0dccc0db8fa95c98bc58cc9a4f1c1299eaf91a26040516001600160a01b038216907f9465fa0c962cc76958e6373a993326400c1c94f8be2fe3a952adfa7f60b2ea2690600090a2505050565b606060007fbb8310d486368db6bd6f849402fdd73ad53d316b5a4b2644ad6efe0f941286d860001b8d8d8d8d6040516121cb92919061398e565b6040519081900381206121f1949392918e908e908e908e908e908e908e9060200161399e565b60408051601f1981840301815291905280516020909101209050601960f81b600160f81b61221d6122b2565b6040516001600160f81b031993841660208201529290911660218301526022820152604281018290526062016040516020818303038152906040529150509b9a5050505050505050505050565b612272612474565b61227b81612b43565b6040516001600160a01b038216907f5ac6c46c93c8d0e53714ba3b53db3e7c046da994313d7ed0d192028bc7c228b090600090a250565b60007f47e79534a245952e8b16893a336b85a3d9ea9fa8c573f3d803afb92a794692184660408051602081019390935282015230606082015260800160405160208183030381529060405280519060200120905090565b612311612474565b80600160035461232191906138d7565b101561233f5760405162461bcd60e51b815260040161081b90613786565b6001600160a01b0382161580159061236157506001600160a01b038216600114155b61237d5760405162461bcd60e51b815260040161081b906135aa565b6001600160a01b038381166000908152600260205260409020548116908316146123d15760405162461bcd60e51b8152602060048201526005602482015264475332303560d81b604482015260640161081b565b6001600160a01b03828116600081815260026020526040808220805488861684529183208054929095166001600160a01b0319928316179094559181528254909116909155600380549161242483613a0d565b90915550506040516001600160a01b038316907ff8d49fc529812e9a7c5c50e69c20f0dccc0db8fa95c98bc58cc9a4f1c1299eaf90600090a2806004541461246f5761246f816114bf565b505050565b3330146124ab5760405162461bcd60e51b8152602060048201526005602482015264475330333160d81b604482015260640161081b565b565b6000826000036124bf57506000610fc1565b60006124cb838561376f565b9050826124d885836138b5565b14610f5b57600080fd5b6000806124ef83856138a2565b905083811015610f5b57600080fd5b336000612509612788565b90509091565b6060601960f81b600160f81b85858560405160200161252f929190613a24565b60408051808303601f190181529082905280516020918201206001600160f81b0319958616918301919091529290931660218401526022830152604282015260620160405160208183030381529060405290509392505050565b600080612650856001600160a01b031663f698da256040518163ffffffff1660e01b8152600401602060405180830381865afa1580156125cd573d6000803e3d6000fd5b505050506040513d601f19601f820116820180604052508101906125f19190613a4a565b60408051602081018890527f60b3cbf8b4a223d68d641b3b6ddf9a298e7f33710cf3d3a9d1146b5a6150fbca910160408051601f198184030181528282528051602091820120908301520160405160208183030381529060405261250f565b8051602082012084519192509060000361271557604051635ae6bd3760e01b8152600481018290526001600160a01b03871690635ae6bd3790602401602060405180830381865afa1580156126a9573d6000803e3d6000fd5b505050506040513d601f19601f820116820180604052508101906126cd9190613a4a565b6000036127105760405162461bcd60e51b815260206004820152601160248201527012185cda081b9bdd08185c1c1c9bdd9959607a1b604482015260640161081b565b612776565b60405163934f3a1160e01b81526001600160a01b0387169063934f3a119061274590849086908990600401613a63565b60006040518083038186803b15801561275d57600080fd5b505afa158015612771573d6000803e3d6000fd5b505050505b50630b135d3f60e11b95945050505050565b600060143610156127db5760405162461bcd60e51b815260206004820152601760248201527f496e76616c69642063616c6c64617461206c656e677468000000000000000000604482015260640161081b565b5060131936013560601c90565b600060018360018111156127fe576127fe6137a5565b03612816576000808551602087018986f49050612826565b600080855160208701888a87f190505b95945050505050565b60008183101561283f5781610f5b565b5090919050565b60008282111561285557600080fd5b60006112cd83856138d7565b6000806001600160a01b03831615612879578261287b565b325b90506001600160a01b03841661290e576128ad3a861061289b573a61289d565b855b6128a789896124e2565b906124ad565b6040519092506001600160a01b0382169083156108fc029084906000818181858888f193505050506129095760405162461bcd60e51b8152602060048201526005602482015264475330313160d81b604482015260640161081b565b61295d565b61291c856128a789896124e2565b9150612929848284612cd9565b61295d5760405162461bcd60e51b815260206004820152600560248201526423a998189960d91b604482015260640161081b565b5095945050505050565b6004541561299f5760405162461bcd60e51b8152602060048201526005602482015264047533230360dc1b604482015260640161081b565b81518111156129c05760405162461bcd60e51b815260040161081b90613786565b60018110156129f95760405162461bcd60e51b815260206004820152600560248201526423a999181960d91b604482015260640161081b565b600160005b8351811015612b10576000848281518110612a1b57612a1b6138ea565b6020026020010151905060006001600160a01b0316816001600160a01b031614158015612a5257506001600160a01b038116600114155b8015612a6757506001600160a01b0381163014155b8015612a855750806001600160a01b0316836001600160a01b031614155b612aa15760405162461bcd60e51b815260040161081b906135aa565b6001600160a01b038181166000908152600260205260409020541615612ad95760405162461bcd60e51b815260040161081b906135c9565b6001600160a01b03928316600090815260026020526040902080546001600160a01b031916938216939093179092556001016129fe565b506001600160a01b0316600090815260026020526040902080546001600160a01b03191660011790559051600355600455565b306001600160a01b03821603612b835760405162461bcd60e51b8152602060048201526005602482015264047533430360dc1b604482015260640161081b565b7f6c9a6c4a39284e37ed1cf53d337577d14212a4870fb976a4366c693b939918d555565b600160008190526020527fcc69885fda6bcc1a4ace058b4a62bf5e179ea78fd58a1ccd71c22cc9b688792f546001600160a01b031615612c115760405162461bcd60e51b8152602060048201526005602482015264047533130360dc1b604482015260640161081b565b6001600081905260208190527fcc69885fda6bcc1a4ace058b4a62bf5e179ea78fd58a1ccd71c22cc9b688792f80546001600160a01b03191690911790556001600160a01b0382161561091457813b612c945760405162461bcd60e51b815260206004820152600560248201526423a998181960d91b604482015260640161081b565b612ca58260008360016000196127e8565b6109145760405162461bcd60e51b8152602060048201526005602482015264047533030360dc1b604482015260640161081b565b604080516001600160a01b03841660248201526044808201849052825180830390910181526064909101909152602080820180516001600160e01b031663a9059cbb60e01b1781528251600093929184919082896127105a03f13d8015612d4b5760208114612d535760009350612d5e565b819350612d5e565b600051158215171593505b5050509392505050565b6001600160a01b0381168114612d7d57600080fd5b50565b6001600160e01b031981168114612d7d57600080fd5b60008060408385031215612da957600080fd5b8235612db481612d68565b91506020830135612dc481612d80565b809150509250929050565b8035612dda81612d68565b919050565b60008060408385031215612df257600080fd5b8235612dfd81612d68565b946020939093013593505050565b634e487b7160e01b600052604160045260246000fd5b600082601f830112612e3257600080fd5b81356001600160401b0380821115612e4c57612e4c612e0b565b604051601f8301601f19908116603f01168101908282118183101715612e7457612e74612e0b565b81604052838152866020858801011115612e8d57600080fd5b836020870160208301376000602085830101528094505050505092915050565b60008060008060808587031215612ec357600080fd5b8435935060208501356001600160401b0380821115612ee157600080fd5b612eed88838901612e21565b94506040870135915080821115612f0357600080fd5b50612f1087828801612e21565b949793965093946060013593505050565b60008083601f840112612f3357600080fd5b5081356001600160401b03811115612f4a57600080fd5b602083019150836020828501011115612f6257600080fd5b9250929050565b600080600060408486031215612f7e57600080fd5b8335925060208401356001600160401b03811115612f9b57600080fd5b612fa786828701612f21565b9497909650939450505050565b600060208284031215612fc657600080fd5b5035919050565b600060208284031215612fdf57600080fd5b8135610f5b81612d68565b60008060408385031215612ffd57600080fd5b823591506020830135612dc481612d68565b803560028110612dda57600080fd5b6000806000806080858703121561303457600080fd5b843561303f81612d68565b93506020850135925060408501356001600160401b0381111561306157600080fd5b61306d87828801612e21565b92505061307c6060860161300f565b905092959194509250565b60005b838110156130a257818101518382015260200161308a565b50506000910152565b600081518084526130c3816020860160208601613087565b601f01601f19169290920160200192915050565b82151581526040602082015260006112cd60408301846130ab565b6000806040838503121561310557600080fd5b50508035926020909101359150565b602081526000610f5b60208301846130ab565b60008060008060008060008060008060006101408c8e03121561314957600080fd5b6131528c612dcf565b9a5060208c013599506001600160401b038060408e0135111561317457600080fd5b6131848e60408f01358f01612f21565b909a50985061319560608e0161300f565b975060808d0135965060a08d0135955060c08d013594506131b860e08e01612dcf565b93506131c76101008e01612dcf565b9250806101208e013511156131db57600080fd5b506131ed8d6101208e01358e01612e21565b90509295989b509295989b9093969950565b60008060006060848603121561321457600080fd5b8335925060208401356001600160401b038082111561323257600080fd5b61323e87838801612e21565b9350604086013591508082111561325457600080fd5b5061326186828701612e21565b9150509250925092565b60008151808452602080850194506020840160005b838110156132a55781516001600160a01b031687529582019590820190600101613280565b509495945050505050565b602081526000610f5b602083018461326b565b600080604083850312156132d657600080fd5b82356132e181612d68565b915060208301356001600160401b038111156132fc57600080fd5b61330885828601612e21565b9150509250929050565b6000806000806000806000806000806101008b8d03121561333257600080fd5b8a356001600160401b038082111561334957600080fd5b818d0191508d601f83011261335d57600080fd5b81358181111561336c57600080fd5b8e60208260051b850101111561338157600080fd5b60208381019d50909b508d0135995061339c60408e01612dcf565b985060608d01359150808211156133b257600080fd5b506133bf8d828e01612f21565b90975095506133d2905060808c01612dcf565b93506133e060a08c01612dcf565b925060c08b013591506133f560e08c01612dcf565b90509295989b9194979a5092959850565b604081526000613419604083018561326b565b905060018060a01b03831660208301529392505050565b60008060008060008060008060008060006101408c8e03121561345257600080fd5b8b3561345d81612d68565b9a5060208c0135995060408c01356001600160401b0381111561347f57600080fd5b61348b8e828f01612f21565b909a50985061349e905060608d0161300f565b965060808c0135955060a08c0135945060c08c0135935060e08c01356134c381612d68565b92506101008c01356134d481612d68565b809250506101208c013590509295989b509295989b9093969950565b6000806040838503121561350357600080fd5b823561350e81612d68565b91506020830135612dc481612d68565b60008060006060848603121561353357600080fd5b833561353e81612d68565b9250602084013561354e81612d68565b9150604084013561355e81612d68565b809150509250925092565b60008060006060848603121561357e57600080fd5b833561358981612d68565b9250602084013561359981612d68565b929592945050506040919091013590565b602080825260059082015264475332303360d81b604082015260600190565b60208082526005908201526411d4cc8c0d60da1b604082015260600190565b634e487b7160e01b600052601160045260246000fd5b600060018201613610576136106135e8565b5060010190565b60408152600061362a60408301856130ab565b828103602084015261282681856130ab565b60006020828403121561364e57600080fd5b8151610f5b81612d80565b60ff8281168282160390811115610fc157610fc16135e8565b6000808585111561368257600080fd5b8386111561368f57600080fd5b5050820193919092039150565b600080600080608085870312156136b257600080fd5b843593506020850135925060408501356001600160401b03808211156136d757600080fd5b6136e388838901612e21565b935060608701359150808211156136f957600080fd5b5061370687828801612e21565b91505092959194509250565b600060018060a01b03808a16835280891660208401525086604083015285606083015284608083015260e060a083015261374f60e08301856130ab565b82810360c084015261376181856130ab565b9a9950505050505050505050565b8082028115828204841417610fc157610fc16135e8565b602080825260059082015264475332303160d81b604082015260600190565b634e487b7160e01b600052602160045260246000fd5b600281106137d957634e487b7160e01b600052602160045260246000fd5b9052565b6001600160a01b038d168152602081018c90526101606040820181905281018a905260006101808b8d828501376000838d01820152601f8c01601f19168301613829606085018d6137bb565b8a60808501528960a08501528860c085015261385060e08501896001600160a01b03169052565b6001600160a01b0387166101008501528184820301610120850152613877828201876130ab565b925050506138916101408301846001600160a01b03169052565b9d9c50505050505050505050505050565b80820180821115610fc157610fc16135e8565b6000826138d257634e487b7160e01b600052601260045260246000fd5b500490565b81810381811115610fc157610fc16135e8565b634e487b7160e01b600052603260045260246000fd5b6080808252810185905260008660a08301825b8881101561394357823561392681612d68565b6001600160a01b0316825260209283019290910190600101613913565b50602084019690965250506001600160a01b039283166040820152911660609091015292915050565b60006020828403121561397e57600080fd5b81518015158114610f5b57600080fd5b8183823760009101908152919050565b8b81526001600160a01b038b81166020830152604082018b9052606082018a90526101608201906139d2608084018b6137bb565b60a083019890985260c082019690965260e0810194909452918516610100840152909316610120820152610140019190915295945050505050565b600081613a1c57613a1c6135e8565b506000190190565b82815260008251613a3c816020850160208701613087565b919091016020019392505050565b600060208284031215613a5c57600080fd5b5051919050565b838152606060208201526000613a7c60608301856130ab565b8281036040840152613a8e81856130ab565b969550505050505056fea2646970667358221220666a32cc8b6faadc42cd832bb774addcd69cdf17ce56bc8f231a0c66c9b133ac64736f6c63430008160033",
    "linkReferences": {}
  },
  "methodIdentifiers": {
    "ERC20s(uint256)": "18ec91b9",
    "VERSION()": "ffa1ad74",
    "addOwnerWithThreshold(address,uint256)": "0d582f13",
    "approveHash(bytes32)": "d4d9bdcd",
    "approvedHashes(address,bytes32)": "7d832974",
    "changeThreshold(uint256)": "694e80c3",
    "checkNSignatures(bytes32,bytes,bytes,uint256)": "12fb68e0",
    "checkSignatures(bytes32,bytes,bytes)": "934f3a11",
    "disableModule(address,address)": "e009cfde",
    "domainSeparator()": "f698da25",
    "domainVerifiers(address,bytes32)": "51cad5ee",
    "enableModule(address)": "610b5925",
    "encodeTransactionData(address,uint256,bytes,uint8,uint256,uint256,uint256,address,address,uint256)": "e86637db",
    "execTransaction(address,uint256,bytes,uint8,uint256,uint256,uint256,address,address,bytes)": "6a761202",
    "execTransactionFromModule(address,uint256,bytes,uint8)": "468721a7",
    "execTransactionFromModuleReturnData(address,uint256,bytes,uint8)": "5229073f",
    "getChainId()": "3408e470",
    "getModulesPaginated(address,uint256)": "cc2f8452",
    "getOwners()": "a0e67e2b",
    "getStorageAt(uint256,uint256)": "5624b25b",
    "getThreshold()": "e75235b8",
    "getTransactionHash(address,uint256,bytes,uint8,uint256,uint256,uint256,address,address,uint256)": "d8d11f78",
    "isModuleEnabled(address)": "2d9ad53d",
    "isOwner(address)": "2f54bf6e",
    "isValidSignature(bytes32,bytes)": "1626ba7e",
    "nonce()": "affed0e0",
    "removeOwner(address,address,uint256)": "f8dc5dd9",
    "safeMethods(address,bytes4)": "0a3fe054",
    "setDomainVerifier(bytes32,address)": "3365582c",
    "setFallbackHandler(address)": "f08a0323",
    "setGuard(address)": "e19a9dd9",
    "setup(address[],uint256,address,bytes,address,address,uint256,address)": "b63e800d",
    "signedMessages(bytes32)": "5ae6bd37",
    "simulateAndRevert(address,bytes)": "b4faba09",
    "swapOwner(address,address,address)": "e318b52b"
  },
  "id": 78
}