{
  "abi": [
    {
      "inputs": [
        {
          "internalType": "address",
          "name": "_owner",
          "type": "address"
        }
      ],
      "stateMutability": "nonpayable",
      "type": "constructor"
    },
    {
      "anonymous": false,
      "inputs": [
        {
          "indexed": true,
          "internalType": "contract Safe",
          "name": "safe",
          "type": "address"
        },
        {
          "indexed": false,
          "internalType": "bytes32",
          "name": "domainSeparator",
          "type": "bytes32"
        },
        {
          "indexed": false,
          "internalType": "contract ISafeSignatureVerifier",
          "name": "verifier",
          "type": "address"
        }
      ],
      "name": "AddedDomainVerifier",
      "type": "event"
    },
    {
      "anonymous": false,
      "inputs": [
        {
          "indexed": true,
          "internalType": "address",
          "name": "owner",
          "type": "address"
        }
      ],
      "name": "AddedOwner",
      "type": "event"
    },
    {
      "anonymous": false,
      "inputs": [
        {
          "indexed": true,
          "internalType": "contract Safe",
          "name": "safe",
          "type": "address"
        },
        {
          "indexed": false,
          "internalType": "bytes4",
          "name": "selector",
          "type": "bytes4"
        },
        {
          "indexed": false,
          "internalType": "bytes32",
          "name": "method",
          "type": "bytes32"
        }
      ],
      "name": "AddedSafeMethod",
      "type": "event"
    },
    {
      "anonymous": false,
      "inputs": [
        {
          "indexed": true,
          "internalType": "bytes32",
          "name": "approvedHash",
          "type": "bytes32"
        },
        {
          "indexed": true,
          "internalType": "address",
          "name": "owner",
          "type": "address"
        }
      ],
      "name": "ApproveHash",
      "type": "event"
    },
    {
      "anonymous": false,
      "inputs": [
        {
          "indexed": true,
          "internalType": "contract Safe",
          "name": "safe",
          "type": "address"
        },
        {
          "indexed": false,
          "internalType": "bytes32",
          "name": "domainSeparator",
          "type": "bytes32"
        },
        {
          "indexed": false,
          "internalType": "contract ISafeSignatureVerifier",
          "name": "oldVerifier",
          "type": "address"
        },
        {
          "indexed": false,
          "internalType": "contract ISafeSignatureVerifier",
          "name": "newVerifier",
          "type": "address"
        }
      ],
      "name": "ChangedDomainVerifier",
      "type": "event"
    },
    {
      "anonymous": false,
      "inputs": [
        {
          "indexed": true,
          "internalType": "address",
          "name": "handler",
          "type": "address"
        }
      ],
      "name": "ChangedFallbackHandler",
      "type": "event"
    },
    {
      "anonymous": false,
      "inputs": [
        {
          "indexed": true,
          "internalType": "address",
          "name": "guard",
          "type": "address"
        }
      ],
      "name": "ChangedGuard",
      "type": "event"
    },
    {
      "anonymous": false,
      "inputs": [
        {
          "indexed": true,
          "internalType": "contract Safe",
          "name": "safe",
          "type": "address"
        },
        {
          "indexed": false,
          "internalType": "bytes4",
          "name": "selector",
          "type": "bytes4"
        },
        {
          "indexed": false,
          "internalType": "bytes32",
          "name": "oldMethod",
          "type": "bytes32"
        },
        {
          "indexed": false,
          "internalType": "bytes32",
          "name": "newMethod",
          "type": "bytes32"
        }
      ],
      "name": "ChangedSafeMethod",
      "type": "event"
    },
    {
      "anonymous": false,
      "inputs": [
        {
          "indexed": false,
          "internalType": "uint256",
          "name": "threshold",
          "type": "uint256"
        }
      ],
      "name": "ChangedThreshold",
      "type": "event"
    },
    {
      "anonymous": false,
      "inputs": [
        {
          "indexed": true,
          "internalType": "address",
          "name": "module",
          "type": "address"
        }
      ],
      "name": "DisabledModule",
      "type": "event"
    },
    {
      "anonymous": false,
      "inputs": [
        {
          "indexed": true,
          "internalType": "address",
          "name": "module",
          "type": "address"
        }
      ],
      "name": "EnabledModule",
      "type": "event"
    },
    {
      "anonymous": false,
      "inputs": [
        {
          "indexed": true,
          "internalType": "bytes32",
          "name": "txHash",
          "type": "bytes32"
        },
        {
          "indexed": false,
          "internalType": "uint256",
          "name": "payment",
          "type": "uint256"
        }
      ],
      "name": "ExecutionFailure",
      "type": "event"
    },
    {
      "anonymous": false,
      "inputs": [
        {
          "indexed": true,
          "internalType": "address",
          "name": "module",
          "type": "address"
        }
      ],
      "name": "ExecutionFromModuleFailure",
      "type": "event"
    },
    {
      "anonymous": false,
      "inputs": [
        {
          "indexed": true,
          "internalType": "address",
          "name": "module",
          "type": "address"
        }
      ],
      "name": "ExecutionFromModuleSuccess",
      "type": "event"
    },
    {
      "anonymous": false,
      "inputs": [
        {
          "indexed": true,
          "internalType": "bytes32",
          "name": "txHash",
          "type": "bytes32"
        },
        {
          "indexed": false,
          "internalType": "uint256",
          "name": "payment",
          "type": "uint256"
        }
      ],
      "name": "ExecutionSuccess",
      "type": "event"
    },
    {
      "anonymous": false,
      "inputs": [
        {
          "indexed": false,
          "internalType": "string",
          "name": "",
          "type": "string"
        },
        {
          "indexed": false,
          "internalType": "uint256",
          "name": "",
          "type": "uint256"
        }
      ],
      "name": "GenericEvent",
      "type": "event"
    },
    {
      "anonymous": false,
      "inputs": [
        {
          "indexed": true,
          "internalType": "contract Safe",
          "name": "safe",
          "type": "address"
        },
        {
          "indexed": false,
          "internalType": "bytes32",
          "name": "domainSeparator",
          "type": "bytes32"
        }
      ],
      "name": "RemovedDomainVerifier",
      "type": "event"
    },
    {
      "anonymous": false,
      "inputs": [
        {
          "indexed": true,
          "internalType": "address",
          "name": "owner",
          "type": "address"
        }
      ],
      "name": "RemovedOwner",
      "type": "event"
    },
    {
      "anonymous": false,
      "inputs": [
        {
          "indexed": true,
          "internalType": "contract Safe",
          "name": "safe",
          "type": "address"
        },
        {
          "indexed": false,
          "internalType": "bytes4",
          "name": "selector",
          "type": "bytes4"
        }
      ],
      "name": "RemovedSafeMethod",
      "type": "event"
    },
    {
      "anonymous": false,
      "inputs": [
        {
          "indexed": true,
          "internalType": "address",
          "name": "sender",
          "type": "address"
        },
        {
          "indexed": false,
          "internalType": "uint256",
          "name": "value",
          "type": "uint256"
        }
      ],
      "name": "SafeReceived",
      "type": "event"
    },
    {
      "anonymous": false,
      "inputs": [
        {
          "indexed": true,
          "internalType": "address",
          "name": "initiator",
          "type": "address"
        },
        {
          "indexed": false,
          "internalType": "address[]",
          "name": "owners",
          "type": "address[]"
        },
        {
          "indexed": false,
          "internalType": "uint256",
          "name": "threshold",
          "type": "uint256"
        },
        {
          "indexed": false,
          "internalType": "address",
          "name": "initializer",
          "type": "address"
        },
        {
          "indexed": false,
          "internalType": "address",
          "name": "fallbackHandler",
          "type": "address"
        }
      ],
      "name": "SafeSetup",
      "type": "event"
    },
    {
      "anonymous": false,
      "inputs": [
        {
          "indexed": true,
          "internalType": "bytes32",
          "name": "msgHash",
          "type": "bytes32"
        }
      ],
      "name": "SignMsg",
      "type": "event"
    },
    {
      "stateMutability": "nonpayable",
      "type": "fallback"
    },
    {
      "inputs": [
        {
          "internalType": "uint256",
          "name": "",
          "type": "uint256"
        }
      ],
      "name": "ERC20s",
      "outputs": [
        {
          "internalType": "address",
          "name": "",
          "type": "address"
        }
      ],
      "stateMutability": "view",
      "type": "function"
    },
    {
      "inputs": [],
      "name": "VERSION",
      "outputs": [
        {
          "internalType": "string",
          "name": "",
          "type": "string"
        }
      ],
      "stateMutability": "view",
      "type": "function"
    },
    {
      "inputs": [
        {
          "internalType": "address",
          "name": "owner",
          "type": "address"
        },
        {
          "internalType": "uint256",
          "name": "_threshold",
          "type": "uint256"
        }
      ],
      "name": "addOwnerWithThreshold",
      "outputs": [],
      "stateMutability": "nonpayable",
      "type": "function"
    },
    {
      "inputs": [
        {
          "internalType": "bytes32",
          "name": "hashToApprove",
          "type": "bytes32"
        }
      ],
      "name": "approveHash",
      "outputs": [],
      "stateMutability": "nonpayable",
      "type": "function"
    },
    {
      "inputs": [
        {
          "internalType": "address",
          "name": "",
          "type": "address"
        },
        {
          "internalType": "bytes32",
          "name": "",
          "type": "bytes32"
        }
      ],
      "name": "approvedHashes",
      "outputs": [
        {
          "internalType": "uint256",
          "name": "",
          "type": "uint256"
        }
      ],
      "stateMutability": "view",
      "type": "function"
    },
    {
      "inputs": [
        {
          "internalType": "uint256",
          "name": "_threshold",
          "type": "uint256"
        }
      ],
      "name": "changeThreshold",
      "outputs": [],
      "stateMutability": "nonpayable",
      "type": "function"
    },
    {
      "inputs": [
        {
          "internalType": "bytes32",
          "name": "dataHash",
          "type": "bytes32"
        },
        {
          "internalType": "bytes",
          "name": "data",
          "type": "bytes"
        },
        {
          "internalType": "bytes",
          "name": "signatures",
          "type": "bytes"
        },
        {
          "internalType": "uint256",
          "name": "requiredSignatures",
          "type": "uint256"
        }
      ],
      "name": "checkNSignatures",
      "outputs": [],
      "stateMutability": "view",
      "type": "function"
    },
    {
      "inputs": [
        {
          "internalType": "bytes32",
          "name": "dataHash",
          "type": "bytes32"
        },
        {
          "internalType": "bytes",
          "name": "data",
          "type": "bytes"
        },
        {
          "internalType": "bytes",
          "name": "signatures",
          "type": "bytes"
        }
      ],
      "name": "checkSignatures",
      "outputs": [],
      "stateMutability": "view",
      "type": "function"
    },
    {
      "inputs": [
        {
          "internalType": "address",
          "name": "prevModule",
          "type": "address"
        },
        {
          "internalType": "address",
          "name": "module",
          "type": "address"
        }
      ],
      "name": "disableModule",
      "outputs": [],
      "stateMutability": "nonpayable",
      "type": "function"
    },
    {
      "inputs": [],
      "name": "domainSeparator",
      "outputs": [
        {
          "internalType": "bytes32",
          "name": "",
          "type": "bytes32"
        }
      ],
      "stateMutability": "view",
      "type": "function"
    },
    {
      "inputs": [
        {
          "internalType": "contract Safe",
          "name": "",
          "type": "address"
        },
        {
          "internalType": "bytes32",
          "name": "",
          "type": "bytes32"
        }
      ],
      "name": "domainVerifiers",
      "outputs": [
        {
          "internalType": "contract ISafeSignatureVerifier",
          "name": "",
          "type": "address"
        }
      ],
      "stateMutability": "view",
      "type": "function"
    },
    {
      "inputs": [
        {
          "internalType": "address",
          "name": "module",
          "type": "address"
        }
      ],
      "name": "enableModule",
      "outputs": [],
      "stateMutability": "nonpayable",
      "type": "function"
    },
    {
      "inputs": [
        {
          "internalType": "address",
          "name": "to",
          "type": "address"
        },
        {
          "internalType": "uint256",
          "name": "value",
          "type": "uint256"
        },
        {
          "internalType": "bytes",
          "name": "data",
          "type": "bytes"
        },
        {
          "internalType": "enum Enum.Operation",
          "name": "operation",
          "type": "uint8"
        },
        {
          "internalType": "uint256",
          "name": "safeTxGas",
          "type": "uint256"
        },
        {
          "internalType": "uint256",
          "name": "baseGas",
          "type": "uint256"
        },
        {
          "internalType": "uint256",
          "name": "gasPrice",
          "type": "uint256"
        },
        {
          "internalType": "address",
          "name": "gasToken",
          "type": "address"
        },
        {
          "internalType": "address",
          "name": "refundReceiver",
          "type": "address"
        },
        {
          "internalType": "uint256",
          "name": "_nonce",
          "type": "uint256"
        }
      ],
      "name": "encodeTransactionData",
      "outputs": [
        {
          "internalType": "bytes",
          "name": "",
          "type": "bytes"
        }
      ],
      "stateMutability": "view",
      "type": "function"
    },
    {
      "inputs": [
        {
          "internalType": "address",
          "name": "to",
          "type": "address"
        },
        {
          "internalType": "uint256",
          "name": "value",
          "type": "uint256"
        },
        {
          "internalType": "bytes",
          "name": "data",
          "type": "bytes"
        },
        {
          "internalType": "enum Enum.Operation",
          "name": "operation",
          "type": "uint8"
        },
        {
          "internalType": "uint256",
          "name": "safeTxGas",
          "type": "uint256"
        },
        {
          "internalType": "uint256",
          "name": "baseGas",
          "type": "uint256"
        },
        {
          "internalType": "uint256",
          "name": "gasPrice",
          "type": "uint256"
        },
        {
          "internalType": "address",
          "name": "gasToken",
          "type": "address"
        },
        {
          "internalType": "address payable",
          "name": "refundReceiver",
          "type": "address"
        },
        {
          "internalType": "bytes",
          "name": "signatures",
          "type": "bytes"
        }
      ],
      "name": "execTransaction",
      "outputs": [
        {
          "internalType": "bool",
          "name": "success",
          "type": "bool"
        }
      ],
      "stateMutability": "payable",
      "type": "function"
    },
    {
      "inputs": [
        {
          "internalType": "address",
          "name": "to",
          "type": "address"
        },
        {
          "internalType": "uint256",
          "name": "value",
          "type": "uint256"
        },
        {
          "internalType": "bytes",
          "name": "data",
          "type": "bytes"
        },
        {
          "internalType": "enum Enum.Operation",
          "name": "operation",
          "type": "uint8"
        }
      ],
      "name": "execTransactionFromModule",
      "outputs": [
        {
          "internalType": "bool",
          "name": "success",
          "type": "bool"
        }
      ],
      "stateMutability": "nonpayable",
      "type": "function"
    },
    {
      "inputs": [
        {
          "internalType": "address",
          "name": "to",
          "type": "address"
        },
        {
          "internalType": "uint256",
          "name": "value",
          "type": "uint256"
        },
        {
          "internalType": "bytes",
          "name": "data",
          "type": "bytes"
        },
        {
          "internalType": "enum Enum.Operation",
          "name": "operation",
          "type": "uint8"
        }
      ],
      "name": "execTransactionFromModuleReturnData",
      "outputs": [
        {
          "internalType": "bool",
          "name": "success",
          "type": "bool"
        },
        {
          "internalType": "bytes",
          "name": "returnData",
          "type": "bytes"
        }
      ],
      "stateMutability": "nonpayable",
      "type": "function"
    },
    {
      "inputs": [],
      "name": "getChainId",
      "outputs": [
        {
          "internalType": "uint256",
          "name": "",
          "type": "uint256"
        }
      ],
      "stateMutability": "view",
      "type": "function"
    },
    {
      "inputs": [
        {
          "internalType": "address",
          "name": "start",
          "type": "address"
        },
        {
          "internalType": "uint256",
          "name": "pageSize",
          "type": "uint256"
        }
      ],
      "name": "getModulesPaginated",
      "outputs": [
        {
          "internalType": "address[]",
          "name": "array",
          "type": "address[]"
        },
        {
          "internalType": "address",
          "name": "next",
          "type": "address"
        }
      ],
      "stateMutability": "view",
      "type": "function"
    },
    {
      "inputs": [],
      "name": "getOwners",
      "outputs": [
        {
          "internalType": "address[]",
          "name": "",
          "type": "address[]"
        }
      ],
      "stateMutability": "view",
      "type": "function"
    },
    {
      "inputs": [
        {
          "internalType": "uint256",
          "name": "offset",
          "type": "uint256"
        },
        {
          "internalType": "uint256",
          "name": "length",
          "type": "uint256"
        }
      ],
      "name": "getStorageAt",
      "outputs": [
        {
          "internalType": "bytes",
          "name": "",
          "type": "bytes"
        }
      ],
      "stateMutability": "view",
      "type": "function"
    },
    {
      "inputs": [],
      "name": "getThreshold",
      "outputs": [
        {
          "internalType": "uint256",
          "name": "",
          "type": "uint256"
        }
      ],
      "stateMutability": "view",
      "type": "function"
    },
    {
      "inputs": [
        {
          "internalType": "address",
          "name": "to",
          "type": "address"
        },
        {
          "internalType": "uint256",
          "name": "value",
          "type": "uint256"
        },
        {
          "internalType": "bytes",
          "name": "data",
          "type": "bytes"
        },
        {
          "internalType": "enum Enum.Operation",
          "name": "operation",
          "type": "uint8"
        },
        {
          "internalType": "uint256",
          "name": "safeTxGas",
          "type": "uint256"
        },
        {
          "internalType": "uint256",
          "name": "baseGas",
          "type": "uint256"
        },
        {
          "internalType": "uint256",
          "name": "gasPrice",
          "type": "uint256"
        },
        {
          "internalType": "address",
          "name": "gasToken",
          "type": "address"
        },
        {
          "internalType": "address",
          "name": "refundReceiver",
          "type": "address"
        },
        {
          "internalType": "uint256",
          "name": "_nonce",
          "type": "uint256"
        }
      ],
      "name": "getTransactionHash",
      "outputs": [
        {
          "internalType": "bytes32",
          "name": "",
          "type": "bytes32"
        }
      ],
      "stateMutability": "view",
      "type": "function"
    },
    {
      "inputs": [
        {
          "internalType": "address",
          "name": "module",
          "type": "address"
        }
      ],
      "name": "isModuleEnabled",
      "outputs": [
        {
          "internalType": "bool",
          "name": "",
          "type": "bool"
        }
      ],
      "stateMutability": "view",
      "type": "function"
    },
    {
      "inputs": [
        {
          "internalType": "address",
          "name": "owner",
          "type": "address"
        }
      ],
      "name": "isOwner",
      "outputs": [
        {
          "internalType": "bool",
          "name": "",
          "type": "bool"
        }
      ],
      "stateMutability": "view",
      "type": "function"
    },
    {
      "inputs": [
        {
          "internalType": "bytes32",
          "name": "_hash",
          "type": "bytes32"
        },
        {
          "internalType": "bytes",
          "name": "signature",
          "type": "bytes"
        }
      ],
      "name": "isValidSignature",
      "outputs": [
        {
          "internalType": "bytes4",
          "name": "magic",
          "type": "bytes4"
        }
      ],
      "stateMutability": "view",
      "type": "function"
    },
    {
      "inputs": [],
      "name": "mod",
      "outputs": [],
      "stateMutability": "nonpayable",
      "type": "function"
    },
    {
      "inputs": [],
      "name": "nonce",
      "outputs": [
        {
          "internalType": "uint256",
          "name": "",
          "type": "uint256"
        }
      ],
      "stateMutability": "view",
      "type": "function"
    },
    {
      "inputs": [
        {
          "internalType": "address",
          "name": "prevOwner",
          "type": "address"
        },
        {
          "internalType": "address",
          "name": "owner",
          "type": "address"
        },
        {
          "internalType": "uint256",
          "name": "_threshold",
          "type": "uint256"
        }
      ],
      "name": "removeOwner",
      "outputs": [],
      "stateMutability": "nonpayable",
      "type": "function"
    },
    {
      "inputs": [
        {
          "internalType": "contract Safe",
          "name": "",
          "type": "address"
        },
        {
          "internalType": "bytes4",
          "name": "",
          "type": "bytes4"
        }
      ],
      "name": "safeMethods",
      "outputs": [
        {
          "internalType": "bytes32",
          "name": "",
          "type": "bytes32"
        }
      ],
      "stateMutability": "view",
      "type": "function"
    },
    {
      "inputs": [
        {
          "internalType": "bytes32",
          "name": "domainSeparator",
          "type": "bytes32"
        },
        {
          "internalType": "contract ISafeSignatureVerifier",
          "name": "newVerifier",
          "type": "address"
        }
      ],
      "name": "setDomainVerifier",
      "outputs": [],
      "stateMutability": "nonpayable",
      "type": "function"
    },
    {
      "inputs": [
        {
          "internalType": "address",
          "name": "handler",
          "type": "address"
        }
      ],
      "name": "setFallbackHandler",
      "outputs": [],
      "stateMutability": "nonpayable",
      "type": "function"
    },
    {
      "inputs": [
        {
          "internalType": "address",
          "name": "guard",
          "type": "address"
        }
      ],
      "name": "setGuard",
      "outputs": [],
      "stateMutability": "nonpayable",
      "type": "function"
    },
    {
      "inputs": [
        {
          "internalType": "address[]",
          "name": "_owners",
          "type": "address[]"
        },
        {
          "internalType": "uint256",
          "name": "_threshold",
          "type": "uint256"
        },
        {
          "internalType": "address",
          "name": "to",
          "type": "address"
        },
        {
          "internalType": "bytes",
          "name": "data",
          "type": "bytes"
        },
        {
          "internalType": "address",
          "name": "fallbackHandler",
          "type": "address"
        },
        {
          "internalType": "address",
          "name": "paymentToken",
          "type": "address"
        },
        {
          "internalType": "uint256",
          "name": "payment",
          "type": "uint256"
        },
        {
          "internalType": "address payable",
          "name": "paymentReceiver",
          "type": "address"
        }
      ],
      "name": "setup",
      "outputs": [],
      "stateMutability": "nonpayable",
      "type": "function"
    },
    {
      "inputs": [
        {
          "internalType": "bytes32",
          "name": "",
          "type": "bytes32"
        }
      ],
      "name": "signedMessages",
      "outputs": [
        {
          "internalType": "uint256",
          "name": "",
          "type": "uint256"
        }
      ],
      "stateMutability": "view",
      "type": "function"
    },
    {
      "inputs": [
        {
          "internalType": "address",
          "name": "targetContract",
          "type": "address"
        },
        {
          "internalType": "bytes",
          "name": "calldataPayload",
          "type": "bytes"
        }
      ],
      "name": "simulateAndRevert",
      "outputs": [],
      "stateMutability": "nonpayable",
      "type": "function"
    },
    {
      "inputs": [
        {
          "internalType": "address",
          "name": "prevOwner",
          "type": "address"
        },
        {
          "internalType": "address",
          "name": "oldOwner",
          "type": "address"
        },
        {
          "internalType": "address",
          "name": "newOwner",
          "type": "address"
        }
      ],
      "name": "swapOwner",
      "outputs": [],
      "stateMutability": "nonpayable",
      "type": "function"
    },
    {
      "stateMutability": "payable",
      "type": "receive"
    }
  ],
  "bytecode": {
    "object": "0x6101806040527302abbdbaaa7b1bb64b5c878f7ac17f8dda16953260809081527391056d4a53e1faa1a84306d4deaec71085394bc860a05273d87ba7a50b2e7e660f678a895e4b72e7cb4ccd9c60c05273dc31ee1784292379fbb2964b3b9c4124d8f89c6060e05273e4e81fa6b16327d4b78cfeb83aade04ba7075165610100527370cba46d2e933030e2f274ae58c951c800548aef61012052739e32c0eff886b6ccae99350fd5e7002dced55f156101405273b4fbf271143f4fbf7b91a5ded31805e42b2208d661016052620000db90600b906008620003b6565b50348015620000e957600080fd5b50604051620041db380380620041db8339810160408190526200010c9162000437565b60016004819055604080518281528082019091526000916020808301908036833701905050905081816000815181106200014a576200014a62000469565b6001600160a01b03909216602092830291909101909101526000600455620001748160016200017c565b50506200047f565b60045415620001ba5760405162461bcd60e51b8152602060048201526005602482015264047533230360dc1b60448201526064015b60405180910390fd5b8151811115620001f55760405162461bcd60e51b8152602060048201526005602482015264475332303160d81b6044820152606401620001b1565b6001811015620002305760405162461bcd60e51b815260206004820152600560248201526423a999181960d91b6044820152606401620001b1565b600160005b83518110156200038357600084828151811062000256576200025662000469565b6020026020010151905060006001600160a01b0316816001600160a01b0316141580156200028e57506001600160a01b038116600114155b8015620002a457506001600160a01b0381163014155b8015620002c35750806001600160a01b0316836001600160a01b031614155b620002f95760405162461bcd60e51b8152602060048201526005602482015264475332303360d81b6044820152606401620001b1565b6001600160a01b0381811660009081526002602052604090205416156200034b5760405162461bcd60e51b815260206004820152600560248201526411d4cc8c0d60da1b6044820152606401620001b1565b6001600160a01b03928316600090815260026020526040902080546001600160a01b0319169382169390931790925560010162000235565b506001600160a01b0316600090815260026020526040902080546001600160a01b03191660011790559051600355600455565b8280548282559060005260206000209081019282156200040e579160200282015b828111156200040e57825182546001600160a01b0319166001600160a01b03909116178255602090920191600190910190620003d7565b506200041c92915062000420565b5090565b5b808211156200041c576000815560010162000421565b6000602082840312156200044a57600080fd5b81516001600160a01b03811681146200046257600080fd5b9392505050565b634e487b7160e01b600052603260045260246000fd5b613d4c806200048f6000396000f3fe6080604052600436106102135760003560e01c80637d83297411610118578063e009cfde116100a0578063e86637db1161006f578063e86637db1461073a578063f08a03231461075a578063f698da251461077a578063f8dc5dd91461078f578063ffa1ad74146107af5761024f565b8063e009cfde146106c5578063e19a9dd9146106e5578063e318b52b14610705578063e75235b8146107255761024f565b8063b4faba09116100e7578063b4faba0914610617578063b63e800d14610637578063cc2f845214610657578063d4d9bdcd14610685578063d8d11f78146106a55761024f565b80637d83297414610587578063934f3a11146105bf578063a0e67e2b146105df578063affed0e0146106015761024f565b80633408e4701161019b5780635624b25b1161016a5780635624b25b146104da5780635ae6bd3714610507578063610b592514610534578063694e80c3146105545780636a761202146105745761024f565b80633408e47014610438578063468721a71461044b57806351cad5ee1461046b5780635229073f146104ac5761024f565b806318ec91b9116101e257806318ec91b91461037b5780632986e054146103b35780632d9ad53d146103c85780632f54bf6e146103f85780633365582c146104185761024f565b80630a3fe054146102b55780630d582f131461030057806312fb68e0146103225780631626ba7e146103425761024f565b3661024f5760405134815233907f3d0ce9bfc3ed7d6862dbb28b2dea94561fe714a1b4d019aa8af39730d1ad7c3d9060200160405180910390a2005b34801561025b57600080fd5b507f6c9a6c4a39284e37ed1cf53d337577d14212a4870fb976a4366c693b939918d580548061028657005b36600080373360601b365260008060143601600080855af190503d6000803e806102af573d6000fd5b503d6000f35b3480156102c157600080fd5b506102ed6102d0366004612fdb565b600960209081526000928352604080842090915290825290205481565b6040519081526020015b60405180910390f35b34801561030c57600080fd5b5061032061031b366004613024565b6107e0565b005b34801561032e57600080fd5b5061032061033d3660046130f2565b610938565b34801561034e57600080fd5b5061036261035d3660046131ae565b610dd7565b6040516001600160e01b031990911681526020016102f7565b34801561038757600080fd5b5061039b6103963660046131f9565b610f82565b6040516001600160a01b0390911681526020016102f7565b3480156103bf57600080fd5b50610320610fac565b3480156103d457600080fd5b506103e86103e3366004613212565b6111d2565b60405190151581526020016102f7565b34801561040457600080fd5b506103e8610413366004613212565b61120d565b34801561042457600080fd5b5061032061043336600461322f565b611245565b34801561044457600080fd5b50466102ed565b34801561045757600080fd5b506103e8610466366004613263565b611441565b34801561047757600080fd5b5061039b610486366004613024565b600a6020908152600092835260408084209091529082529020546001600160a01b031681565b3480156104b857600080fd5b506104cc6104c7366004613263565b61151a565b6040516102f792919061331c565b3480156104e657600080fd5b506104fa6104f5366004613337565b611550565b6040516102f79190613359565b34801561051357600080fd5b506102ed6105223660046131f9565b60076020526000908152604090205481565b34801561054057600080fd5b5061032061054f366004613212565b6115cb565b34801561056057600080fd5b5061032061056f3660046131f9565b611704565b6103e861058236600461336c565b6117a2565b34801561059357600080fd5b506102ed6105a2366004613024565b600860209081526000928352604080842090915290825290205481565b3480156105cb57600080fd5b506103206105da366004613444565b611aed565b3480156105eb57600080fd5b506105f4611b31565b6040516102f791906134f5565b34801561060d57600080fd5b506102ed60055481565b34801561062357600080fd5b50610320610632366004613508565b611c21565b34801561064357600080fd5b50610320610652366004613557565b611c44565b34801561066357600080fd5b50610677610672366004613024565b611d46565b6040516102f792919061364b565b34801561069157600080fd5b506103206106a03660046131f9565b611f01565b3480156106b157600080fd5b506102ed6106c0366004613675565b611f96565b3480156106d157600080fd5b506103206106e0366004613735565b611fc3565b3480156106f157600080fd5b50610320610700366004613212565b6120e5565b34801561071157600080fd5b50610320610720366004613763565b6121fb565b34801561073157600080fd5b506004546102ed565b34801561074657600080fd5b506104fa610755366004613675565b6123d6565b34801561076657600080fd5b50610320610775366004613212565b6124af565b34801561078657600080fd5b506102ed6124f7565b34801561079b57600080fd5b506103206107aa3660046137ae565b61254e565b3480156107bb57600080fd5b506104fa60405180604001604052806005815260200164312e342e3160d81b81525081565b6107e86126b9565b6001600160a01b0382161580159061080a57506001600160a01b038216600114155b801561081f57506001600160a01b0382163014155b6108445760405162461bcd60e51b815260040161083b906137ef565b60405180910390fd5b6001600160a01b03828116600090815260026020526040902054161561087c5760405162461bcd60e51b815260040161083b9061380e565b60026020527fe90b7bceb6e7df5418fb78d8ee546e97c83a08bbccc01a0644d599ccd2a7c2e080546001600160a01b038481166000818152604081208054939094166001600160a01b0319938416179093556001835283549091161790915560038054916108e983613843565b90915550506040516001600160a01b038316907f9465fa0c962cc76958e6373a993326400c1c94f8be2fe3a952adfa7f60b2ea2690600090a280600454146109345761093481611704565b5050565b6109438160416126f2565b8251101561097b5760405162461bcd60e51b8152602060048201526005602482015264047533032360dc1b604482015260640161083b565b6000808060008060005b86811015610dcb576041818102890160208101516040820151919092015160ff16955090935091506000849003610b9357885160208a01208a146109f35760405162461bcd60e51b8152602060048201526005602482015264475330323760d81b604482015260640161083b565b9193508391610a038760416126f2565b821015610a3a5760405162461bcd60e51b8152602060048201526005602482015264475330323160d81b604482015260640161083b565b8751610a47836020612727565b1115610a7d5760405162461bcd60e51b815260206004820152600560248201526423a998191960d91b604482015260640161083b565b602082890181015189519091610aa0908390610a9a908790612727565b90612727565b1115610ad65760405162461bcd60e51b8152602060048201526005602482015264475330323360d81b604482015260640161083b565b6040516320c13b0b60e01b8082528a8501602001916001600160a01b038916906320c13b0b90610b0c908f90869060040161385c565b602060405180830381865afa158015610b29573d6000803e3d6000fd5b505050506040513d601f19601f82011682018060405250810190610b4d9190613881565b6001600160e01b03191614610b8c5760405162461bcd60e51b815260206004820152600560248201526411d4cc0c8d60da1b604482015260640161083b565b5050610d3a565b8360ff16600103610c15579193508391336001600160a01b0384161480610bdc57506001600160a01b03851660009081526008602090815260408083208d845290915290205415155b610c105760405162461bcd60e51b8152602060048201526005602482015264475330323560d81b604482015260640161083b565b610d3a565b601e8460ff161115610cda576040517f19457468657265756d205369676e6564204d6573736167653a0a3332000000006020820152603c81018b9052600190605c0160405160208183030381529060405280519060200120600486610c7a919061389e565b6040805160008152602081018083529390935260ff90911690820152606081018590526080810184905260a0016020604051602081039080840390855afa158015610cc9573d6000803e3d6000fd5b505050602060405103519450610d3a565b6040805160008152602081018083528c905260ff861691810191909152606081018490526080810183905260019060a0016020604051602081039080840390855afa158015610d2d573d6000803e3d6000fd5b5050506020604051035194505b856001600160a01b0316856001600160a01b0316118015610d7457506001600160a01b038581166000908152600260205260409020541615155b8015610d8a57506001600160a01b038516600114155b610dbe5760405162461bcd60e51b815260206004820152600560248201526423a998191b60d91b604482015260640161083b565b9394508493600101610985565b50505050505050505050565b6000806000610de4612743565b909250905060048410610f35576001600160e01b0319853516635fd7e97d60e01b81148015610e14575060448510155b15610f3357600080610e2a60446004898b6138b7565b810190610e379190613337565b6001600160a01b038088166000908152600a60209081526040808320868452909152902054929450909250168015610f2f57600080610e798a6004818e6138b7565b810190610e8691906138e1565b9350935050508b610e98868685612754565b8051906020012003610f2c57826001600160a01b03166353f00b1489898f898988886040518863ffffffff1660e01b8152600401610edc9796959493929190613957565b602060405180830381865afa158015610ef9573d6000803e3d6000fd5b505050506040513d601f19601f82011682018060405250810190610f1d9190613881565b98505050505050505050610f7b565b50505b5050505b505b610f76828787878080601f0160208091040260200160405190810160405280939291908181526020018383808284376000920191909152506127ce92505050565b925050505b9392505050565b600b8181548110610f9257600080fd5b6000918252602090912001546001600160a01b0316905081565b6000610fb6611b31565b6040805160008082526020820190925291925090610fe7732f55e8b20d0b9fefa187aa7d00b6cbe563605bf56129cd565b610ff18282612a31565b82600081518110611004576110046139b4565b60200260200101516001600160a01b03167f141df868a6331af528e38c83b7aa03edc19be66e37ae67f9285bf4f8e3c6a1a884600185732f55e8b20d0b9fefa187aa7d00b6cbe563605bf560405161105f94939291906139ca565b60405180910390a2306000818152600a602090815260408083207ffb378b35457022ecc5709ae5dafad9393c1387ae6d8ce24913a0c969074c07fb80855292529182902080546001600160a01b03191673fdafc9d1902f4e0b84f65f49f244b32b31013b7490811790915591517fae938181ed4437a46f12ead84e69947e6d84a1113a49d9c0075d8d35c6ce273c926111089282526001600160a01b0316602082015260400190565b60405180910390a260005b600b548110156111cc57600b8181548110611130576111306139b4565b60009182526020909120015460405163095ea7b360e01b815273fdafc9d1902f4e0b84f65f49f244b32b31013b74600482015260001960248201526001600160a01b039091169063095ea7b3906044016020604051808303816000875af115801561119f573d6000803e3d6000fd5b505050506040513d601f19601f820116820180604052508101906111c39190613a03565b50600101611113565b50505050565b600060016001600160a01b0383161480159061120757506001600160a01b038281166000908152600160205260409020541615155b92915050565b60006001600160a01b0382166001148015906112075750506001600160a01b0390811660009081526002602052604090205416151590565b3361124e612b63565b6001600160a01b0316146112a45760405162461bcd60e51b815260206004820152601e60248201527f6f6e6c7920736166652063616e2063616c6c2074686973206d6574686f640000604482015260640161083b565b60006112ae612b63565b6001600160a01b038082166000908152600a602090815260408083208884529091529020549192509081169083161580156112f157506001600160a01b03811615155b1561135e576001600160a01b0382166000818152600a6020908152604080832088845282529182902080546001600160a01b031916905590518681527ff1984d1a49cc75dcbf01cd175870cb7eb9a4fd87b538a87007e4dbb0399b61a991015b60405180910390a26111cc565b6001600160a01b038281166000908152600a60209081526040808320888452909152902080546001600160a01b03191685831617905581166113dc57604080518581526001600160a01b0385811660208301528416917fae938181ed4437a46f12ead84e69947e6d84a1113a49d9c0075d8d35c6ce273c9101611351565b816001600160a01b03167f06341ac2f62eb79165de8c8b54ab89a8825b12746c2b98e01dff1007837d2ba8858386604051611433939291909283526001600160a01b03918216602084015216604082015260600190565b60405180910390a250505050565b60003360011480159061146b5750336000908152600160205260409020546001600160a01b031615155b61149f5760405162461bcd60e51b815260206004820152600560248201526411d4cc4c0d60da1b604482015260640161083b565b6114ae85858585600019612bc3565b905080156114e65760405133907f6895c13664aa4f67288b25d7a21d7aaa34916e355fb9b6fae0a139a9085becb890600090a2611512565b60405133907facd2c8702804128fdb0db2bb49f6d127dd0181c13fd45dbfe16de0930e2bd37590600090a25b949350505050565b6000606061152a86868686611441565b915060405160203d0181016040523d81523d6000602083013e8091505094509492505050565b6060600061155f836020613a25565b6001600160401b0381111561157657611576613050565b6040519080825280601f01601f1916602001820160405280156115a0576020820181803683370190505b50905060005b838110156115c357848101546020808302840101526001016115a6565b509392505050565b6115d36126b9565b6001600160a01b038116158015906115f557506001600160a01b038116600114155b6116295760405162461bcd60e51b8152602060048201526005602482015264475331303160d81b604482015260640161083b565b6001600160a01b0381811660009081526001602052604090205416156116795760405162461bcd60e51b815260206004820152600560248201526423a998981960d91b604482015260640161083b565b600160208190527fcc69885fda6bcc1a4ace058b4a62bf5e179ea78fd58a1ccd71c22cc9b688792f80546001600160a01b03848116600081815260408082208054949095166001600160a01b031994851617909455948552835490911681179092555190917fecdf3a3effea5783a3c4c2140e677577666428d44ed9d474a0b3a4c9943f844091a250565b61170c6126b9565b60035481111561172e5760405162461bcd60e51b815260040161083b90613a3c565b60018110156117675760405162461bcd60e51b815260206004820152600560248201526423a999181960d91b604482015260640161083b565b60048190556040518181527f610f7ff2b304ae8903c3de74c60c6ab1f7d6226b3f52c5161905bb5ad4039c939060200160405180910390a150565b60008060006117bc8e8e8e8e8e8e8e8e8e8e6005546123d6565b6005805491925060006117ce83613843565b90915550508051602082012091506117e7828286611aed565b5060006118127f4a204f620c8c5ccdca3fd54d003badd85ba500436a431f0cbda4f558c93c34c85490565b90506001600160a01b0381161561189857806001600160a01b03166375f0bb528f8f8f8f8f8f8f8f8f8f8f336040518d63ffffffff1660e01b81526004016118659c9b9a99989796959493929190613a93565b600060405180830381600087803b15801561187f57600080fd5b505af1158015611893573d6000803e3d6000fd5b505050505b6118c46118a78a6109c4613b58565b603f6118b48c6040613a25565b6118be9190613b6b565b90612c0a565b6118d0906101f4613b58565b5a10156119075760405162461bcd60e51b8152602060048201526005602482015264047533031360dc1b604482015260640161083b565b60005a90506119788f8f8f8f8080601f016020809104026020016040519081016040528093929190818152602001838380828437600081840152601f19601f820116905080830192505050505050508e8c600014611965578e612bc3565b6109c45a6119739190613b8d565b612bc3565b93506119855a8290612c21565b9050838061199257508915155b8061199c57508715155b6119d05760405162461bcd60e51b8152602060048201526005602482015264475330313360d81b604482015260640161083b565b600088156119e8576119e5828b8b8b8b612c3c565b90505b8415611a2d57837f442e715f626346e8c54381002da614f62bee8d27386535b2521ec8540898556e82604051611a2091815260200190565b60405180910390a2611a68565b837f23428b18acfb3ea64b08dc0c1d296ea9c09702c09083ca5272e64d115b687d2382604051611a5f91815260200190565b60405180910390a25b50506001600160a01b03811615611adc57604051631264e26d60e31b81526004810183905283151560248201526001600160a01b03821690639327136890604401600060405180830381600087803b158015611ac357600080fd5b505af1158015611ad7573d6000803e3d6000fd5b505050505b50509b9a5050505050505050505050565b60045480611b255760405162461bcd60e51b8152602060048201526005602482015264475330303160d81b604482015260640161083b565b6111cc84848484610938565b606060006003546001600160401b03811115611b4f57611b4f613050565b604051908082528060200260200182016040528015611b78578160200160208202803683370190505b506001600090815260026020527fe90b7bceb6e7df5418fb78d8ee546e97c83a08bbccc01a0644d599ccd2a7c2e054919250906001600160a01b03165b6001600160a01b038116600114611c195780838381518110611bd957611bd96139b4565b6001600160a01b03928316602091820292909201810191909152918116600090815260029092526040909120541681611c1181613843565b925050611bb5565b509092915050565b600080825160208401855af480600052503d6020523d600060403e60403d016000fd5b611c828a8a808060200260200160405190810160405280939291908181526020018383602002808284376000920191909152508c9250612d42915050565b6001600160a01b03841615611c9a57611c9a846129cd565b611cda8787878080601f016020809104026020016040519081016040528093929190818152602001838380828437600092019190915250612a3192505050565b8115611cf157611cef82600060018685612c3c565b505b336001600160a01b03167f141df868a6331af528e38c83b7aa03edc19be66e37ae67f9285bf4f8e3c6a1a88b8b8b8b89604051611d32959493929190613ba0565b60405180910390a250505050505050505050565b606060006001600160a01b03841660011480611d665750611d66846111d2565b611d9a5760405162461bcd60e51b8152602060048201526005602482015264475331303560d81b604482015260640161083b565b60008311611dd25760405162461bcd60e51b815260206004820152600560248201526423a998981b60d91b604482015260640161083b565b826001600160401b03811115611dea57611dea613050565b604051908082528060200260200182016040528015611e13578160200160208202803683370190505b506001600160a01b03808616600090815260016020526040812054929450911691505b6001600160a01b03821615801590611e5857506001600160a01b038216600114155b8015611e6357508381105b15611ebe5781838281518110611e7b57611e7b6139b4565b6001600160a01b03928316602091820292909201810191909152928116600090815260019093526040909220549091169080611eb681613843565b915050611e36565b6001600160a01b038216600114611ef65782611edb600183613b8d565b81518110611eeb57611eeb6139b4565b602002602001015191505b808352509250929050565b336000908152600260205260409020546001600160a01b0316611f4e5760405162461bcd60e51b8152602060048201526005602482015264047533033360dc1b604482015260640161083b565b336000818152600860209081526040808320858452909152808220600190555183917ff2a0eb156472d1440255b0d7c1e19cc07115d1051fe605b0dce69acfec884d9c91a350565b6000611fab8c8c8c8c8c8c8c8c8c8c8c6123d6565b8051906020012090509b9a5050505050505050505050565b611fcb6126b9565b6001600160a01b03811615801590611fed57506001600160a01b038116600114155b6120215760405162461bcd60e51b8152602060048201526005602482015264475331303160d81b604482015260640161083b565b6001600160a01b038281166000908152600160205260409020548116908216146120755760405162461bcd60e51b8152602060048201526005602482015264475331303360d81b604482015260640161083b565b6001600160a01b03818116600081815260016020526040808220805487861684528284208054919096166001600160a01b0319918216179095558383528054909416909355915190917faab4fa2b463f581b2b32cb3b7e3b704b9ce37cc209b5fb4d77e593ace405427691a25050565b6120ed6126b9565b6001600160a01b0381161561219f576040516301ffc9a760e01b815263736bd41d60e11b60048201526001600160a01b038216906301ffc9a790602401602060405180830381865afa158015612147573d6000803e3d6000fd5b505050506040513d601f19601f8201168201806040525081019061216b9190613a03565b61219f5760405162461bcd60e51b8152602060048201526005602482015264047533330360dc1b604482015260640161083b565b7f4a204f620c8c5ccdca3fd54d003badd85ba500436a431f0cbda4f558c93c34c88181556040516001600160a01b038316907f1151116914515bc0891ff9047a6cb32cf902546f83066499bcf8ba33d2353fa290600090a25050565b6122036126b9565b6001600160a01b0381161580159061222557506001600160a01b038116600114155b801561223a57506001600160a01b0381163014155b6122565760405162461bcd60e51b815260040161083b906137ef565b6001600160a01b03818116600090815260026020526040902054161561228e5760405162461bcd60e51b815260040161083b9061380e565b6001600160a01b038216158015906122b057506001600160a01b038216600114155b6122cc5760405162461bcd60e51b815260040161083b906137ef565b6001600160a01b038381166000908152600260205260409020548116908316146123205760405162461bcd60e51b8152602060048201526005602482015264475332303560d81b604482015260640161083b565b6001600160a01b03828116600081815260026020526040808220805486861680855283852080549288166001600160a01b03199384161790559589168452828420805482169096179095558383528054909416909355915190917ff8d49fc529812e9a7c5c50e69c20f0dccc0db8fa95c98bc58cc9a4f1c1299eaf91a26040516001600160a01b038216907f9465fa0c962cc76958e6373a993326400c1c94f8be2fe3a952adfa7f60b2ea2690600090a2505050565b606060007fbb8310d486368db6bd6f849402fdd73ad53d316b5a4b2644ad6efe0f941286d860001b8d8d8d8d604051612410929190613c0c565b604051908190038120612436949392918e908e908e908e908e908e908e90602001613c1c565b60408051601f1981840301815291905280516020909101209050601960f81b600160f81b6124626124f7565b6040516001600160f81b031993841660208201529290911660218301526022820152604281018290526062016040516020818303038152906040529150509b9a5050505050505050505050565b6124b76126b9565b6124c0816129cd565b6040516001600160a01b038216907f5ac6c46c93c8d0e53714ba3b53db3e7c046da994313d7ed0d192028bc7c228b090600090a250565b60007f47e79534a245952e8b16893a336b85a3d9ea9fa8c573f3d803afb92a794692184660408051602081019390935282015230606082015260800160405160208183030381529060405280519060200120905090565b6125566126b9565b8060016003546125669190613b8d565b10156125845760405162461bcd60e51b815260040161083b90613a3c565b6001600160a01b038216158015906125a657506001600160a01b038216600114155b6125c25760405162461bcd60e51b815260040161083b906137ef565b6001600160a01b038381166000908152600260205260409020548116908316146126165760405162461bcd60e51b8152602060048201526005602482015264475332303560d81b604482015260640161083b565b6001600160a01b03828116600081815260026020526040808220805488861684529183208054929095166001600160a01b0319928316179094559181528254909116909155600380549161266983613c8b565b90915550506040516001600160a01b038316907ff8d49fc529812e9a7c5c50e69c20f0dccc0db8fa95c98bc58cc9a4f1c1299eaf90600090a280600454146126b4576126b481611704565b505050565b3330146126f05760405162461bcd60e51b8152602060048201526005602482015264475330333160d81b604482015260640161083b565b565b60008260000361270457506000611207565b60006127108385613a25565b90508261271d8583613b6b565b14610f7b57600080fd5b6000806127348385613b58565b905083811015610f7b57600080fd5b33600061274e612b63565b90509091565b6060601960f81b600160f81b858585604051602001612774929190613ca2565b60408051808303601f190181529082905280516020918201206001600160f81b0319958616918301919091529290931660218401526022830152604282015260620160405160208183030381529060405290509392505050565b600080612895856001600160a01b031663f698da256040518163ffffffff1660e01b8152600401602060405180830381865afa158015612812573d6000803e3d6000fd5b505050506040513d601f19601f820116820180604052508101906128369190613cc8565b60408051602081018890527f60b3cbf8b4a223d68d641b3b6ddf9a298e7f33710cf3d3a9d1146b5a6150fbca910160408051601f1981840301815282825280516020918201209083015201604051602081830303815290604052612754565b8051602082012084519192509060000361295a57604051635ae6bd3760e01b8152600481018290526001600160a01b03871690635ae6bd3790602401602060405180830381865afa1580156128ee573d6000803e3d6000fd5b505050506040513d601f19601f820116820180604052508101906129129190613cc8565b6000036129555760405162461bcd60e51b815260206004820152601160248201527012185cda081b9bdd08185c1c1c9bdd9959607a1b604482015260640161083b565b6129bb565b60405163934f3a1160e01b81526001600160a01b0387169063934f3a119061298a90849086908990600401613ce1565b60006040518083038186803b1580156129a257600080fd5b505afa1580156129b6573d6000803e3d6000fd5b505050505b50630b135d3f60e11b95945050505050565b306001600160a01b03821603612a0d5760405162461bcd60e51b8152602060048201526005602482015264047533430360dc1b604482015260640161083b565b7f6c9a6c4a39284e37ed1cf53d337577d14212a4870fb976a4366c693b939918d555565b600160008190526020527fcc69885fda6bcc1a4ace058b4a62bf5e179ea78fd58a1ccd71c22cc9b688792f546001600160a01b031615612a9b5760405162461bcd60e51b8152602060048201526005602482015264047533130360dc1b604482015260640161083b565b6001600081905260208190527fcc69885fda6bcc1a4ace058b4a62bf5e179ea78fd58a1ccd71c22cc9b688792f80546001600160a01b03191690911790556001600160a01b0382161561093457813b612b1e5760405162461bcd60e51b815260206004820152600560248201526423a998181960d91b604482015260640161083b565b612b2f826000836001600019612bc3565b6109345760405162461bcd60e51b8152602060048201526005602482015264047533030360dc1b604482015260640161083b565b60006014361015612bb65760405162461bcd60e51b815260206004820152601760248201527f496e76616c69642063616c6c64617461206c656e677468000000000000000000604482015260640161083b565b5060131936013560601c90565b60006001836001811115612bd957612bd9613a5b565b03612bf1576000808551602087018986f49050612c01565b600080855160208701888a87f190505b95945050505050565b600081831015612c1a5781610f7b565b5090919050565b600082821115612c3057600080fd5b60006115128385613b8d565b6000806001600160a01b03831615612c545782612c56565b325b90506001600160a01b038416612ce957612c883a8610612c76573a612c78565b855b612c828989612727565b906126f2565b6040519092506001600160a01b0382169083156108fc029084906000818181858888f19350505050612ce45760405162461bcd60e51b8152602060048201526005602482015264475330313160d81b604482015260640161083b565b612d38565b612cf785612c828989612727565b9150612d04848284612f1e565b612d385760405162461bcd60e51b815260206004820152600560248201526423a998189960d91b604482015260640161083b565b5095945050505050565b60045415612d7a5760405162461bcd60e51b8152602060048201526005602482015264047533230360dc1b604482015260640161083b565b8151811115612d9b5760405162461bcd60e51b815260040161083b90613a3c565b6001811015612dd45760405162461bcd60e51b815260206004820152600560248201526423a999181960d91b604482015260640161083b565b600160005b8351811015612eeb576000848281518110612df657612df66139b4565b6020026020010151905060006001600160a01b0316816001600160a01b031614158015612e2d57506001600160a01b038116600114155b8015612e4257506001600160a01b0381163014155b8015612e605750806001600160a01b0316836001600160a01b031614155b612e7c5760405162461bcd60e51b815260040161083b906137ef565b6001600160a01b038181166000908152600260205260409020541615612eb45760405162461bcd60e51b815260040161083b9061380e565b6001600160a01b03928316600090815260026020526040902080546001600160a01b03191693821693909317909255600101612dd9565b506001600160a01b0316600090815260026020526040902080546001600160a01b03191660011790559051600355600455565b604080516001600160a01b03841660248201526044808201849052825180830390910181526064909101909152602080820180516001600160e01b031663a9059cbb60e01b1781528251600093929184919082896127105a03f13d8015612f905760208114612f985760009350612fa3565b819350612fa3565b600051158215171593505b5050509392505050565b6001600160a01b0381168114612fc257600080fd5b50565b6001600160e01b031981168114612fc257600080fd5b60008060408385031215612fee57600080fd5b8235612ff981612fad565b9150602083013561300981612fc5565b809150509250929050565b803561301f81612fad565b919050565b6000806040838503121561303757600080fd5b823561304281612fad565b946020939093013593505050565b634e487b7160e01b600052604160045260246000fd5b600082601f83011261307757600080fd5b81356001600160401b038082111561309157613091613050565b604051601f8301601f19908116603f011681019082821181831017156130b9576130b9613050565b816040528381528660208588010111156130d257600080fd5b836020870160208301376000602085830101528094505050505092915050565b6000806000806080858703121561310857600080fd5b8435935060208501356001600160401b038082111561312657600080fd5b61313288838901613066565b9450604087013591508082111561314857600080fd5b5061315587828801613066565b949793965093946060013593505050565b60008083601f84011261317857600080fd5b5081356001600160401b0381111561318f57600080fd5b6020830191508360208285010111156131a757600080fd5b9250929050565b6000806000604084860312156131c357600080fd5b8335925060208401356001600160401b038111156131e057600080fd5b6131ec86828701613166565b9497909650939450505050565b60006020828403121561320b57600080fd5b5035919050565b60006020828403121561322457600080fd5b8135610f7b81612fad565b6000806040838503121561324257600080fd5b82359150602083013561300981612fad565b80356002811061301f57600080fd5b6000806000806080858703121561327957600080fd5b843561328481612fad565b93506020850135925060408501356001600160401b038111156132a657600080fd5b6132b287828801613066565b9250506132c160608601613254565b905092959194509250565b60005b838110156132e75781810151838201526020016132cf565b50506000910152565b600081518084526133088160208601602086016132cc565b601f01601f19169290920160200192915050565b821515815260406020820152600061151260408301846132f0565b6000806040838503121561334a57600080fd5b50508035926020909101359150565b602081526000610f7b60208301846132f0565b60008060008060008060008060008060006101408c8e03121561338e57600080fd5b6133978c613014565b9a5060208c013599506001600160401b038060408e013511156133b957600080fd5b6133c98e60408f01358f01613166565b909a5098506133da60608e01613254565b975060808d0135965060a08d0135955060c08d013594506133fd60e08e01613014565b935061340c6101008e01613014565b9250806101208e0135111561342057600080fd5b506134328d6101208e01358e01613066565b90509295989b509295989b9093969950565b60008060006060848603121561345957600080fd5b8335925060208401356001600160401b038082111561347757600080fd5b61348387838801613066565b9350604086013591508082111561349957600080fd5b506134a686828701613066565b9150509250925092565b60008151808452602080850194506020840160005b838110156134ea5781516001600160a01b0316875295820195908201906001016134c5565b509495945050505050565b602081526000610f7b60208301846134b0565b6000806040838503121561351b57600080fd5b823561352681612fad565b915060208301356001600160401b0381111561354157600080fd5b61354d85828601613066565b9150509250929050565b6000806000806000806000806000806101008b8d03121561357757600080fd5b8a356001600160401b038082111561358e57600080fd5b818d0191508d601f8301126135a257600080fd5b8135818111156135b157600080fd5b8e60208260051b85010111156135c657600080fd5b60208381019d50909b508d013599506135e160408e01613014565b985060608d01359150808211156135f757600080fd5b506136048d828e01613166565b9097509550613617905060808c01613014565b935061362560a08c01613014565b925060c08b0135915061363a60e08c01613014565b90509295989b9194979a5092959850565b60408152600061365e60408301856134b0565b905060018060a01b03831660208301529392505050565b60008060008060008060008060008060006101408c8e03121561369757600080fd5b8b356136a281612fad565b9a5060208c0135995060408c01356001600160401b038111156136c457600080fd5b6136d08e828f01613166565b909a5098506136e3905060608d01613254565b965060808c0135955060a08c0135945060c08c0135935060e08c013561370881612fad565b92506101008c013561371981612fad565b809250506101208c013590509295989b509295989b9093969950565b6000806040838503121561374857600080fd5b823561375381612fad565b9150602083013561300981612fad565b60008060006060848603121561377857600080fd5b833561378381612fad565b9250602084013561379381612fad565b915060408401356137a381612fad565b809150509250925092565b6000806000606084860312156137c357600080fd5b83356137ce81612fad565b925060208401356137de81612fad565b929592945050506040919091013590565b602080825260059082015264475332303360d81b604082015260600190565b60208082526005908201526411d4cc8c0d60da1b604082015260600190565b634e487b7160e01b600052601160045260246000fd5b6000600182016138555761385561382d565b5060010190565b60408152600061386f60408301856132f0565b8281036020840152612c0181856132f0565b60006020828403121561389357600080fd5b8151610f7b81612fc5565b60ff82811682821603908111156112075761120761382d565b600080858511156138c757600080fd5b838611156138d457600080fd5b5050820193919092039150565b600080600080608085870312156138f757600080fd5b843593506020850135925060408501356001600160401b038082111561391c57600080fd5b61392888838901613066565b9350606087013591508082111561393e57600080fd5b5061394b87828801613066565b91505092959194509250565b600060018060a01b03808a16835280891660208401525086604083015285606083015284608083015260e060a083015261399460e08301856132f0565b82810360c08401526139a681856132f0565b9a9950505050505050505050565b634e487b7160e01b600052603260045260246000fd5b6080815260006139dd60808301876134b0565b6020830195909552506001600160a01b0392831660408201529116606090910152919050565b600060208284031215613a1557600080fd5b81518015158114610f7b57600080fd5b80820281158282048414176112075761120761382d565b602080825260059082015264475332303160d81b604082015260600190565b634e487b7160e01b600052602160045260246000fd5b60028110613a8f57634e487b7160e01b600052602160045260246000fd5b9052565b6001600160a01b038d168152602081018c90526101606040820181905281018a905260006101808b8d828501376000838d01820152601f8c01601f19168301613adf606085018d613a71565b8a60808501528960a08501528860c0850152613b0660e08501896001600160a01b03169052565b6001600160a01b0387166101008501528184820301610120850152613b2d828201876132f0565b92505050613b476101408301846001600160a01b03169052565b9d9c50505050505050505050505050565b808201808211156112075761120761382d565b600082613b8857634e487b7160e01b600052601260045260246000fd5b500490565b818103818111156112075761120761382d565b6080808252810185905260008660a08301825b88811015613be3578235613bc681612fad565b6001600160a01b0316825260209283019290910190600101613bb3565b50602084019690965250506001600160a01b039283166040820152911660609091015292915050565b8183823760009101908152919050565b8b81526001600160a01b038b81166020830152604082018b9052606082018a9052610160820190613c50608084018b613a71565b60a083019890985260c082019690965260e0810194909452918516610100840152909316610120820152610140019190915295945050505050565b600081613c9a57613c9a61382d565b506000190190565b82815260008251613cba8160208501602087016132cc565b919091016020019392505050565b600060208284031215613cda57600080fd5b5051919050565b838152606060208201526000613cfa60608301856132f0565b8281036040840152613d0c81856132f0565b969550505050505056fea2646970667358221220ff64f685cc141b5510188b45ab21cd32f18157e89ea60f3f979e5a663db4f73564736f6c63430008160033",
    "linkReferences": {}
  },
  "methodIdentifiers": {
    "ERC20s(uint256)": "18ec91b9",
    "VERSION()": "ffa1ad74",
    "addOwnerWithThreshold(address,uint256)": "0d582f13",
    "approveHash(bytes32)": "d4d9bdcd",
    "approvedHashes(address,bytes32)": "7d832974",
    "changeThreshold(uint256)": "694e80c3",
    "checkNSignatures(bytes32,bytes,bytes,uint256)": "12fb68e0",
    "checkSignatures(bytes32,bytes,bytes)": "934f3a11",
    "disableModule(address,address)": "e009cfde",
    "domainSeparator()": "f698da25",
    "domainVerifiers(address,bytes32)": "51cad5ee",
    "enableModule(address)": "610b5925",
    "encodeTransactionData(address,uint256,bytes,uint8,uint256,uint256,uint256,address,address,uint256)": "e86637db",
    "execTransaction(address,uint256,bytes,uint8,uint256,uint256,uint256,address,address,bytes)": "6a761202",
    "execTransactionFromModule(address,uint256,bytes,uint8)": "468721a7",
    "execTransactionFromModuleReturnData(address,uint256,bytes,uint8)": "5229073f",
    "getChainId()": "3408e470",
    "getModulesPaginated(address,uint256)": "cc2f8452",
    "getOwners()": "a0e67e2b",
    "getStorageAt(uint256,uint256)": "5624b25b",
    "getThreshold()": "e75235b8",
    "getTransactionHash(address,uint256,bytes,uint8,uint256,uint256,uint256,address,address,uint256)": "d8d11f78",
    "isModuleEnabled(address)": "2d9ad53d",
    "isOwner(address)": "2f54bf6e",
    "isValidSignature(bytes32,bytes)": "1626ba7e",
    "mod()": "2986e054",
    "nonce()": "affed0e0",
    "removeOwner(address,address,uint256)": "f8dc5dd9",
    "safeMethods(address,bytes4)": "0a3fe054",
    "setDomainVerifier(bytes32,address)": "3365582c",
    "setFallbackHandler(address)": "f08a0323",
    "setGuard(address)": "e19a9dd9",
    "setup(address[],uint256,address,bytes,address,address,uint256,address)": "b63e800d",
    "signedMessages(bytes32)": "5ae6bd37",
    "simulateAndRevert(address,bytes)": "b4faba09",
    "swapOwner(address,address,address)": "e318b52b"
  },
  "id": 54
}